{
  "_format": "hh-sol-artifact-1",
  "contractName": "Coin98Vault",
  "sourceName": "contracts/c98-vault.sol",
  "abi": [
    {
      "anonymous": false,
      "inputs": [
        {
          "indexed": true,
          "internalType": "address",
          "name": "admin",
          "type": "address"
        }
      ],
      "name": "AdminAdded",
      "type": "event"
    },
    {
      "anonymous": false,
      "inputs": [
        {
          "indexed": true,
          "internalType": "address",
          "name": "admin",
          "type": "address"
        }
      ],
      "name": "AdminRemoved",
      "type": "event"
    },
    {
      "anonymous": false,
      "inputs": [
        {
          "indexed": false,
          "internalType": "uint256",
          "name": "eventId",
          "type": "uint256"
        },
        {
          "components": [
            {
              "internalType": "uint256",
              "name": "timestamp",
              "type": "uint256"
            },
            {
              "internalType": "bytes32",
              "name": "merkleRoot",
              "type": "bytes32"
            },
            {
              "internalType": "address",
              "name": "receivingToken",
              "type": "address"
            },
            {
              "internalType": "address",
              "name": "sendingToken",
              "type": "address"
            },
            {
              "internalType": "uint8",
              "name": "isActive",
              "type": "uint8"
            }
          ],
          "indexed": false,
          "internalType": "struct Coin98Vault.EventData",
          "name": "eventData",
          "type": "tuple"
        }
      ],
      "name": "EventCreated",
      "type": "event"
    },
    {
      "anonymous": false,
      "inputs": [
        {
          "indexed": false,
          "internalType": "uint256",
          "name": "eventId",
          "type": "uint256"
        },
        {
          "indexed": false,
          "internalType": "uint8",
          "name": "isActive",
          "type": "uint8"
        }
      ],
      "name": "EventUpdated",
      "type": "event"
    },
    {
      "anonymous": false,
      "inputs": [
        {
          "indexed": true,
          "internalType": "address",
          "name": "previousOwner",
          "type": "address"
        },
        {
          "indexed": true,
          "internalType": "address",
          "name": "newOwner",
          "type": "address"
        }
      ],
      "name": "OwnershipTransferred",
      "type": "event"
    },
    {
      "anonymous": false,
      "inputs": [
        {
          "indexed": false,
          "internalType": "uint256",
          "name": "eventId",
          "type": "uint256"
        },
        {
          "indexed": false,
          "internalType": "uint256",
          "name": "index",
          "type": "uint256"
        },
        {
          "indexed": true,
          "internalType": "address",
          "name": "recipient",
          "type": "address"
        },
        {
          "indexed": true,
          "internalType": "address",
          "name": "receivingToken",
          "type": "address"
        },
        {
          "indexed": false,
          "internalType": "uint256",
          "name": "receivingTokenId",
          "type": "uint256"
        },
        {
          "indexed": true,
          "internalType": "address",
          "name": "sendingToken",
          "type": "address"
        },
        {
          "indexed": false,
          "internalType": "uint256",
          "name": "sendingTokenAmount",
          "type": "uint256"
        }
      ],
      "name": "Redeemed",
      "type": "event"
    },
    {
      "anonymous": false,
      "inputs": [
        {
          "indexed": true,
          "internalType": "address",
          "name": "owner",
          "type": "address"
        },
        {
          "indexed": true,
          "internalType": "address",
          "name": "recipient",
          "type": "address"
        },
        {
          "indexed": true,
          "internalType": "address",
          "name": "token",
          "type": "address"
        },
        {
          "indexed": false,
          "internalType": "uint256",
          "name": "value",
          "type": "uint256"
        }
      ],
      "name": "Withdrawn",
      "type": "event"
    },
    {
      "inputs": [],
      "name": "admins",
      "outputs": [
        {
          "internalType": "address[]",
          "name": "",
          "type": "address[]"
        }
      ],
      "stateMutability": "view",
      "type": "function"
    },
    {
      "inputs": [
        {
          "internalType": "uint256",
          "name": "eventId_",
          "type": "uint256"
        }
      ],
      "name": "eventInfo",
      "outputs": [
        {
          "components": [
            {
              "internalType": "uint256",
              "name": "timestamp",
              "type": "uint256"
            },
            {
              "internalType": "bytes32",
              "name": "merkleRoot",
              "type": "bytes32"
            },
            {
              "internalType": "address",
              "name": "receivingToken",
              "type": "address"
            },
            {
              "internalType": "address",
              "name": "sendingToken",
              "type": "address"
            },
            {
              "internalType": "uint8",
              "name": "isActive",
              "type": "uint8"
            }
          ],
          "internalType": "struct Coin98Vault.EventData",
          "name": "",
          "type": "tuple"
        }
      ],
      "stateMutability": "view",
      "type": "function"
    },
    {
      "inputs": [],
      "name": "factory",
      "outputs": [
        {
          "internalType": "address",
          "name": "",
          "type": "address"
        }
      ],
      "stateMutability": "view",
      "type": "function"
    },
    {
      "inputs": [],
      "name": "init",
      "outputs": [],
      "stateMutability": "nonpayable",
      "type": "function"
    },
    {
      "inputs": [
        {
          "internalType": "uint256",
          "name": "eventId_",
          "type": "uint256"
        },
        {
          "internalType": "uint256",
          "name": "index_",
          "type": "uint256"
        }
      ],
      "name": "isRedeemed",
      "outputs": [
        {
          "internalType": "bool",
          "name": "",
          "type": "bool"
        }
      ],
      "stateMutability": "view",
      "type": "function"
    },
    {
      "inputs": [
        {
          "internalType": "address",
          "name": "",
          "type": "address"
        },
        {
          "internalType": "address",
          "name": "",
          "type": "address"
        },
        {
          "internalType": "uint256[]",
          "name": "",
          "type": "uint256[]"
        },
        {
          "internalType": "uint256[]",
          "name": "",
          "type": "uint256[]"
        },
        {
          "internalType": "bytes",
          "name": "",
          "type": "bytes"
        }
      ],
      "name": "onERC1155BatchReceived",
      "outputs": [
        {
          "internalType": "bytes4",
          "name": "",
          "type": "bytes4"
        }
      ],
      "stateMutability": "nonpayable",
      "type": "function"
    },
    {
      "inputs": [
        {
          "internalType": "address",
          "name": "",
          "type": "address"
        },
        {
          "internalType": "address",
          "name": "",
          "type": "address"
        },
        {
          "internalType": "uint256",
          "name": "",
          "type": "uint256"
        },
        {
          "internalType": "uint256",
          "name": "",
          "type": "uint256"
        },
        {
          "internalType": "bytes",
          "name": "",
          "type": "bytes"
        }
      ],
      "name": "onERC1155Received",
      "outputs": [
        {
          "internalType": "bytes4",
          "name": "",
          "type": "bytes4"
        }
      ],
      "stateMutability": "nonpayable",
      "type": "function"
    },
    {
      "inputs": [
        {
          "internalType": "address",
          "name": "",
          "type": "address"
        },
        {
          "internalType": "address",
          "name": "",
          "type": "address"
        },
        {
          "internalType": "uint256",
          "name": "",
          "type": "uint256"
        },
        {
          "internalType": "bytes",
          "name": "",
          "type": "bytes"
        }
      ],
      "name": "onERC721Received",
      "outputs": [
        {
          "internalType": "bytes4",
          "name": "",
          "type": "bytes4"
        }
      ],
      "stateMutability": "nonpayable",
      "type": "function"
    },
    {
      "inputs": [],
      "name": "owner",
      "outputs": [
        {
          "internalType": "address",
          "name": "",
          "type": "address"
        }
      ],
      "stateMutability": "view",
      "type": "function"
    },
    {
      "inputs": [
        {
          "internalType": "uint256",
          "name": "eventId_",
          "type": "uint256"
        },
        {
          "internalType": "uint256",
          "name": "index_",
          "type": "uint256"
        },
        {
          "internalType": "address",
          "name": "recipient_",
          "type": "address"
        },
        {
          "internalType": "uint256",
          "name": "tokenId_",
          "type": "uint256"
        },
        {
          "internalType": "uint256",
          "name": "sendingAmount_",
          "type": "uint256"
        },
        {
          "internalType": "bytes32[]",
          "name": "proofs",
          "type": "bytes32[]"
        }
      ],
      "name": "redeemERC1155",
      "outputs": [],
      "stateMutability": "payable",
      "type": "function"
    },
    {
      "inputs": [
        {
          "internalType": "uint256",
          "name": "eventId_",
          "type": "uint256"
        },
        {
          "internalType": "uint256",
          "name": "index_",
          "type": "uint256"
        },
        {
          "internalType": "address",
          "name": "recipient_",
          "type": "address"
        },
        {
          "internalType": "uint256",
          "name": "tokenId_",
          "type": "uint256"
        },
        {
          "internalType": "uint256",
          "name": "sendingAmount_",
          "type": "uint256"
        },
        {
          "internalType": "bytes32[]",
          "name": "proofs",
          "type": "bytes32[]"
        }
      ],
      "name": "redeemERC721",
      "outputs": [],
      "stateMutability": "payable",
      "type": "function"
    },
    {
      "inputs": [],
      "name": "renounceOwnership",
      "outputs": [],
      "stateMutability": "nonpayable",
      "type": "function"
    },
    {
      "inputs": [
        {
          "internalType": "bytes4",
          "name": "interfaceId",
          "type": "bytes4"
        }
      ],
      "name": "supportsInterface",
      "outputs": [
        {
          "internalType": "bool",
          "name": "",
          "type": "bool"
        }
      ],
      "stateMutability": "view",
      "type": "function"
    },
    {
      "inputs": [
        {
          "internalType": "address",
          "name": "newOwner",
          "type": "address"
        }
      ],
      "name": "transferOwnership",
      "outputs": [],
      "stateMutability": "nonpayable",
      "type": "function"
    }
  ],
  "bytecode": "0x608060405234801561001057600080fd5b506135ae806100206000396000f3fe6080604052600436106100dd5760003560e01c8063a5de36191161007f578063c87234b911610059578063c87234b9146102a6578063e1c7392a146102e3578063f23a6e61146102fa578063f2fde38b14610337576100dd565b8063a5de361914610213578063bc197c811461023e578063c45a01551461027b576100dd565b80633647c6ed116100bb5780633647c6ed14610178578063715018a6146101945780638da5cb5b146101ab5780639d0c025b146101d6576100dd565b806301ffc9a7146100e2578063150b7a021461011f5780631bb1763e1461015c575b600080fd5b3480156100ee57600080fd5b5061010960048036038101906101049190612439565b610360565b6040516101169190612bc3565b60405180910390f35b34801561012b57600080fd5b5061014660048036038101906101419190612306565b6103da565b6040516101539190612bde565b60405180910390f35b610176600480360381019061017191906124f0565b6103ee565b005b610192600480360381019061018d91906124f0565b610c15565b005b3480156101a057600080fd5b506101a9611463565b005b3480156101b757600080fd5b506101c06114eb565b6040516101cd9190612a84565b60405180910390f35b3480156101e257600080fd5b506101fd60048036038101906101f89190612462565b611514565b60405161020a9190612e1b565b60405180910390f35b34801561021f57600080fd5b5061022861161e565b6040516102359190612ba1565b60405180910390f35b34801561024a57600080fd5b5061026560048036038101906102609190612247565b6116ac565b6040516102729190612bde565b60405180910390f35b34801561028757600080fd5b506102906116c1565b60405161029d9190612a84565b60405180910390f35b3480156102b257600080fd5b506102cd60048036038101906102c891906124b4565b6116eb565b6040516102da9190612bc3565b60405180910390f35b3480156102ef57600080fd5b506102f8611727565b005b34801561030657600080fd5b50610321600480360381019061031c9190612381565b6117c4565b60405161032e9190612bde565b60405180910390f35b34801561034357600080fd5b5061035e600480360381019061035991906121f5565b6117d9565b005b60007f4e2312e0000000000000000000000000000000000000000000000000000000007bffffffffffffffffffffffffffffffffffffffffffffffffffffffff1916827bffffffffffffffffffffffffffffffffffffffffffffffffffffffff191614806103d357506103d2826118d1565b5b9050919050565b600063150b7a0260e01b9050949350505050565b6000603260009054906101000a900473ffffffffffffffffffffffffffffffffffffffff1673ffffffffffffffffffffffffffffffffffffffff1663ddca3f436040518163ffffffff1660e01b815260040160206040518083038186803b15801561045857600080fd5b505afa15801561046c573d6000803e3d6000fd5b505050506040513d601f19601f82011682018060405250810190610490919061248b565b90506000603260009054906101000a900473ffffffffffffffffffffffffffffffffffffffff1673ffffffffffffffffffffffffffffffffffffffff1663f68016b76040518163ffffffff1660e01b815260040160206040518083038186803b1580156104fc57600080fd5b505afa158015610510573d6000803e3d6000fd5b505050506040513d601f19601f82011682018060405250810190610534919061248b565b9050600082111561058257813414610581576040517f08c379a000000000000000000000000000000000000000000000000000000000815260040161057890612c7b565b60405180910390fd5b5b6000603560008b8152602001908152602001600020905060008160030160149054906101000a900460ff1660ff16116105f0576040517f08c379a00000000000000000000000000000000000000000000000000000000081526004016105e790612ddb565b60405180910390fd5b4281600001541115610637576040517f08c379a000000000000000000000000000000000000000000000000000000000815260040161062e90612d3b565b60405180910390fd5b600073ffffffffffffffffffffffffffffffffffffffff168873ffffffffffffffffffffffffffffffffffffffff1614156106a7576040517f08c379a000000000000000000000000000000000000000000000000000000000815260040161069e90612d9b565b60405180910390fd5b6000898989896040516020016106c09493929190612a36565b604051602081830303815290604052805190602001209050610728868680806020026020016040519081016040528093929190818152602001838360200280828437600081840152601f19601f8201169050808301925050505050505083600101548361193b565b610767576040517f08c379a000000000000000000000000000000000000000000000000000000000815260040161075e90612c1b565b60405180910390fd5b6107718b8b6116eb565b156107b1576040517f08c379a00000000000000000000000000000000000000000000000000000000081526004016107a890612c3b565b60405180910390fd5b60008260020160009054906101000a900473ffffffffffffffffffffffffffffffffffffffff1673ffffffffffffffffffffffffffffffffffffffff1662fdd58e308b6040518363ffffffff1660e01b8152600401610811929190612b78565b60206040518083038186803b15801561082957600080fd5b505afa15801561083d573d6000803e3d6000fd5b505050506040513d601f19601f82011682018060405250810190610861919061248b565b9050600081116108a6576040517f08c379a000000000000000000000000000000000000000000000000000000000815260040161089d90612cfb565b60405180910390fd5b6108b08c8c611952565b6000851115610a45576000603260009054906101000a900473ffffffffffffffffffffffffffffffffffffffff1673ffffffffffffffffffffffffffffffffffffffff16630c0116ba6040518163ffffffff1660e01b815260040160206040518083038186803b15801561092357600080fd5b505afa158015610937573d6000803e3d6000fd5b505050506040513d601f19601f8201168201806040525081019061095b919061248b565b90506000818761096b9190612f94565b9050600080603260009054906101000a900473ffffffffffffffffffffffffffffffffffffffff1673ffffffffffffffffffffffffffffffffffffffff168389906040516109b890612a21565b600060405180830381858888f193505050503d80600081146109f6576040519150601f19603f3d011682016040523d82523d6000602084013e6109fb565b606091505b509150915081610a40576040517f08c379a0000000000000000000000000000000000000000000000000000000008152600401610a3790612dfb565b60405180910390fd5b505050505b6000881115610aa757610aa6610a59611993565b308a8660030160009054906101000a900473ffffffffffffffffffffffffffffffffffffffff1673ffffffffffffffffffffffffffffffffffffffff1661199b909392919063ffffffff16565b5b8260020160009054906101000a900473ffffffffffffffffffffffffffffffffffffffff1673ffffffffffffffffffffffffffffffffffffffff1663f242432a308c8c60016040518563ffffffff1660e01b8152600401610b0b9493929190612ad6565b600060405180830381600087803b158015610b2557600080fd5b505af1158015610b39573d6000803e3d6000fd5b505050508260030160009054906101000a900473ffffffffffffffffffffffffffffffffffffffff1673ffffffffffffffffffffffffffffffffffffffff168360020160009054906101000a900473ffffffffffffffffffffffffffffffffffffffff1673ffffffffffffffffffffffffffffffffffffffff168b73ffffffffffffffffffffffffffffffffffffffff167ff409ae64b6834450b7c7d1a871be39b3e8e5e1410392dece1609e952a0bbed258f8f8e8e604051610bff9493929190612e51565b60405180910390a4505050505050505050505050565b6000603260009054906101000a900473ffffffffffffffffffffffffffffffffffffffff1673ffffffffffffffffffffffffffffffffffffffff1663ddca3f436040518163ffffffff1660e01b815260040160206040518083038186803b158015610c7f57600080fd5b505afa158015610c93573d6000803e3d6000fd5b505050506040513d601f19601f82011682018060405250810190610cb7919061248b565b90506000603260009054906101000a900473ffffffffffffffffffffffffffffffffffffffff1673ffffffffffffffffffffffffffffffffffffffff1663f68016b76040518163ffffffff1660e01b815260040160206040518083038186803b158015610d2357600080fd5b505afa158015610d37573d6000803e3d6000fd5b505050506040513d601f19601f82011682018060405250810190610d5b919061248b565b90506000821115610da957813414610da8576040517f08c379a0000000000000000000000000000000000000000000000000000000008152600401610d9f90612c7b565b60405180910390fd5b5b6000603560008b8152602001908152602001600020905060008160030160149054906101000a900460ff1660ff1611610e17576040517f08c379a0000000000000000000000000000000000000000000000000000000008152600401610e0e90612ddb565b60405180910390fd5b4281600001541115610e5e576040517f08c379a0000000000000000000000000000000000000000000000000000000008152600401610e5590612d3b565b60405180910390fd5b600073ffffffffffffffffffffffffffffffffffffffff168873ffffffffffffffffffffffffffffffffffffffff161415610ece576040517f08c379a0000000000000000000000000000000000000000000000000000000008152600401610ec590612d9b565b60405180910390fd5b600089898989604051602001610ee79493929190612a36565b604051602081830303815290604052805190602001209050610f4f868680806020026020016040519081016040528093929190818152602001838360200280828437600081840152601f19601f8201169050808301925050505050505083600101548361193b565b610f8e576040517f08c379a0000000000000000000000000000000000000000000000000000000008152600401610f8590612c1b565b60405180910390fd5b610f988b8b6116eb565b15610fd8576040517f08c379a0000000000000000000000000000000000000000000000000000000008152600401610fcf90612c3b565b60405180910390fd5b60008260020160009054906101000a900473ffffffffffffffffffffffffffffffffffffffff1673ffffffffffffffffffffffffffffffffffffffff16636352211e8a6040518263ffffffff1660e01b81526004016110379190612e36565b60206040518083038186803b15801561104f57600080fd5b505afa158015611063573d6000803e3d6000fd5b505050506040513d601f19601f82011682018060405250810190611087919061221e565b90503073ffffffffffffffffffffffffffffffffffffffff168173ffffffffffffffffffffffffffffffffffffffff16146110f7576040517f08c379a00000000000000000000000000000000000000000000000000000000081526004016110ee90612c9b565b60405180910390fd5b6111018c8c611952565b6000851115611296576000603260009054906101000a900473ffffffffffffffffffffffffffffffffffffffff1673ffffffffffffffffffffffffffffffffffffffff16630c0116ba6040518163ffffffff1660e01b815260040160206040518083038186803b15801561117457600080fd5b505afa158015611188573d6000803e3d6000fd5b505050506040513d601f19601f820116820180604052508101906111ac919061248b565b9050600081876111bc9190612f94565b9050600080603260009054906101000a900473ffffffffffffffffffffffffffffffffffffffff1673ffffffffffffffffffffffffffffffffffffffff1683899060405161120990612a21565b600060405180830381858888f193505050503d8060008114611247576040519150601f19603f3d011682016040523d82523d6000602084013e61124c565b606091505b509150915081611291576040517f08c379a000000000000000000000000000000000000000000000000000000000815260040161128890612dfb565b60405180910390fd5b505050505b60008811156112f8576112f76112aa611993565b308a8660030160009054906101000a900473ffffffffffffffffffffffffffffffffffffffff1673ffffffffffffffffffffffffffffffffffffffff1661199b909392919063ffffffff16565b5b8260020160009054906101000a900473ffffffffffffffffffffffffffffffffffffffff1673ffffffffffffffffffffffffffffffffffffffff1663b88d4fde308c8c6040518463ffffffff1660e01b815260040161135993929190612b2e565b600060405180830381600087803b15801561137357600080fd5b505af1158015611387573d6000803e3d6000fd5b505050508260030160009054906101000a900473ffffffffffffffffffffffffffffffffffffffff1673ffffffffffffffffffffffffffffffffffffffff168360020160009054906101000a900473ffffffffffffffffffffffffffffffffffffffff1673ffffffffffffffffffffffffffffffffffffffff168b73ffffffffffffffffffffffffffffffffffffffff167ff409ae64b6834450b7c7d1a871be39b3e8e5e1410392dece1609e952a0bbed258f8f8e8e60405161144d9493929190612e51565b60405180910390a4505050505050505050505050565b61146b611993565b73ffffffffffffffffffffffffffffffffffffffff166114896114eb565b73ffffffffffffffffffffffffffffffffffffffff16146114df576040517f08c379a00000000000000000000000000000000000000000000000000000000081526004016114d690612d1b565b60405180910390fd5b6114e96000611a24565b565b60008060029054906101000a900473ffffffffffffffffffffffffffffffffffffffff16905090565b61151c611fce565b603560008381526020019081526020016000206040518060a001604052908160008201548152602001600182015481526020016002820160009054906101000a900473ffffffffffffffffffffffffffffffffffffffff1673ffffffffffffffffffffffffffffffffffffffff1673ffffffffffffffffffffffffffffffffffffffff1681526020016003820160009054906101000a900473ffffffffffffffffffffffffffffffffffffffff1673ffffffffffffffffffffffffffffffffffffffff1673ffffffffffffffffffffffffffffffffffffffff1681526020016003820160149054906101000a900460ff1660ff1660ff16815250509050919050565b606060338054806020026020016040519081016040528092919081815260200182805480156116a257602002820191906000526020600020905b8160009054906101000a900473ffffffffffffffffffffffffffffffffffffffff1673ffffffffffffffffffffffffffffffffffffffff1681526020019060010190808311611658575b5050505050905090565b600063bc197c8160e01b905095945050505050565b6000603260009054906101000a900473ffffffffffffffffffffffffffffffffffffffff16905090565b600060366000848152602001908152602001600020600083815260200190815260200160002060009054906101000a900460ff16905092915050565b60006117336001611ae9565b90508015611757576001600060016101000a81548160ff0219169083151502179055505b61175f611bd9565b33603260006101000a81548173ffffffffffffffffffffffffffffffffffffffff021916908373ffffffffffffffffffffffffffffffffffffffff16021790555080156117c15760008060016101000a81548160ff0219169083151502179055505b50565b600063f23a6e6160e01b905095945050505050565b6117e1611993565b73ffffffffffffffffffffffffffffffffffffffff166117ff6114eb565b73ffffffffffffffffffffffffffffffffffffffff1614611855576040517f08c379a000000000000000000000000000000000000000000000000000000000815260040161184c90612d1b565b60405180910390fd5b600073ffffffffffffffffffffffffffffffffffffffff168173ffffffffffffffffffffffffffffffffffffffff1614156118c5576040517f08c379a00000000000000000000000000000000000000000000000000000000081526004016118bc90612c5b565b60405180910390fd5b6118ce81611a24565b50565b60007f01ffc9a7000000000000000000000000000000000000000000000000000000007bffffffffffffffffffffffffffffffffffffffffffffffffffffffff1916827bffffffffffffffffffffffffffffffffffffffffffffffffffffffff1916149050919050565b6000826119488584611c32565b1490509392505050565b600160366000848152602001908152602001600020600083815260200190815260200160002060006101000a81548160ff0219169083151502179055505050565b600033905090565b611a1e846323b872dd60e01b8585856040516024016119bc93929190612a9f565b604051602081830303815290604052907bffffffffffffffffffffffffffffffffffffffffffffffffffffffff19166020820180517bffffffffffffffffffffffffffffffffffffffffffffffffffffffff8381831617835250505050611cae565b50505050565b60008060029054906101000a900473ffffffffffffffffffffffffffffffffffffffff16905081600060026101000a81548173ffffffffffffffffffffffffffffffffffffffff021916908373ffffffffffffffffffffffffffffffffffffffff1602179055508173ffffffffffffffffffffffffffffffffffffffff168173ffffffffffffffffffffffffffffffffffffffff167f8be0079c531659141344cd1fd0a4f28419497f9722a3daafe3b4186f6b6457e060405160405180910390a35050565b60008060019054906101000a900460ff1615611b605760018260ff16148015611b185750611b1630611d75565b155b611b57576040517f08c379a0000000000000000000000000000000000000000000000000000000008152600401611b4e90612cdb565b60405180910390fd5b60009050611bd4565b8160ff1660008054906101000a900460ff1660ff1610611bb5576040517f08c379a0000000000000000000000000000000000000000000000000000000008152600401611bac90612cdb565b60405180910390fd5b816000806101000a81548160ff021916908360ff160217905550600190505b919050565b600060019054906101000a900460ff16611c28576040517f08c379a0000000000000000000000000000000000000000000000000000000008152600401611c1f90612d7b565b60405180910390fd5b611c30611d98565b565b60008082905060005b8451811015611ca357611c8e82868381518110611c81577f4e487b7100000000000000000000000000000000000000000000000000000000600052603260045260246000fd5b6020026020010151611df9565b91508080611c9b906130d8565b915050611c3b565b508091505092915050565b6000611d10826040518060400160405280602081526020017f5361666545524332303a206c6f772d6c6576656c2063616c6c206661696c65648152508573ffffffffffffffffffffffffffffffffffffffff16611e249092919063ffffffff16565b9050600081511115611d705780806020019051810190611d309190612410565b611d6f576040517f08c379a0000000000000000000000000000000000000000000000000000000008152600401611d6690612dbb565b60405180910390fd5b5b505050565b6000808273ffffffffffffffffffffffffffffffffffffffff163b119050919050565b600060019054906101000a900460ff16611de7576040517f08c379a0000000000000000000000000000000000000000000000000000000008152600401611dde90612d7b565b60405180910390fd5b611df7611df2611993565b611a24565b565b6000818310611e1157611e0c8284611e3c565b611e1c565b611e1b8383611e3c565b5b905092915050565b6060611e338484600085611e53565b90509392505050565b600082600052816020526040600020905092915050565b606082471015611e98576040517f08c379a0000000000000000000000000000000000000000000000000000000008152600401611e8f90612cbb565b60405180910390fd5b611ea185611d75565b611ee0576040517f08c379a0000000000000000000000000000000000000000000000000000000008152600401611ed790612d5b565b60405180910390fd5b6000808673ffffffffffffffffffffffffffffffffffffffff168587604051611f099190612a0a565b60006040518083038185875af1925050503d8060008114611f46576040519150601f19603f3d011682016040523d82523d6000602084013e611f4b565b606091505b5091509150611f5b828286611f67565b92505050949350505050565b60608315611f7757829050611fc7565b600083511115611f8a5782518084602001fd5b816040517f08c379a0000000000000000000000000000000000000000000000000000000008152600401611fbe9190612bf9565b60405180910390fd5b9392505050565b6040518060a001604052806000815260200160008019168152602001600073ffffffffffffffffffffffffffffffffffffffff168152602001600073ffffffffffffffffffffffffffffffffffffffff168152602001600060ff1681525090565b600061204261203d84612ebb565b612e96565b9050808382526020820190508285602086028201111561206157600080fd5b60005b85811015612091578161207788826121cb565b845260208401935060208301925050600181019050612064565b5050509392505050565b60006120ae6120a984612ee7565b612e96565b9050828152602081018484840111156120c657600080fd5b6120d1848285613065565b509392505050565b6000813590506120e88161351c565b92915050565b6000815190506120fd8161351c565b92915050565b60008083601f84011261211557600080fd5b8235905067ffffffffffffffff81111561212e57600080fd5b60208301915083602082028301111561214657600080fd5b9250929050565b600082601f83011261215e57600080fd5b813561216e84826020860161202f565b91505092915050565b60008151905061218681613533565b92915050565b60008135905061219b8161354a565b92915050565b600082601f8301126121b257600080fd5b81356121c284826020860161209b565b91505092915050565b6000813590506121da81613561565b92915050565b6000815190506121ef81613561565b92915050565b60006020828403121561220757600080fd5b6000612215848285016120d9565b91505092915050565b60006020828403121561223057600080fd5b600061223e848285016120ee565b91505092915050565b600080600080600060a0868803121561225f57600080fd5b600061226d888289016120d9565b955050602061227e888289016120d9565b945050604086013567ffffffffffffffff81111561229b57600080fd5b6122a78882890161214d565b935050606086013567ffffffffffffffff8111156122c457600080fd5b6122d08882890161214d565b925050608086013567ffffffffffffffff8111156122ed57600080fd5b6122f9888289016121a1565b9150509295509295909350565b6000806000806080858703121561231c57600080fd5b600061232a878288016120d9565b945050602061233b878288016120d9565b935050604061234c878288016121cb565b925050606085013567ffffffffffffffff81111561236957600080fd5b612375878288016121a1565b91505092959194509250565b600080600080600060a0868803121561239957600080fd5b60006123a7888289016120d9565b95505060206123b8888289016120d9565b94505060406123c9888289016121cb565b93505060606123da888289016121cb565b925050608086013567ffffffffffffffff8111156123f757600080fd5b612403888289016121a1565b9150509295509295909350565b60006020828403121561242257600080fd5b600061243084828501612177565b91505092915050565b60006020828403121561244b57600080fd5b60006124598482850161218c565b91505092915050565b60006020828403121561247457600080fd5b6000612482848285016121cb565b91505092915050565b60006020828403121561249d57600080fd5b60006124ab848285016121e0565b91505092915050565b600080604083850312156124c757600080fd5b60006124d5858286016121cb565b92505060206124e6858286016121cb565b9150509250929050565b600080600080600080600060c0888a03121561250b57600080fd5b60006125198a828b016121cb565b975050602061252a8a828b016121cb565b965050604061253b8a828b016120d9565b955050606061254c8a828b016121cb565b945050608061255d8a828b016121cb565b93505060a088013567ffffffffffffffff81111561257a57600080fd5b6125868a828b01612103565b925092505092959891949750929550565b60006125a383836125af565b60208301905092915050565b6125b881612fc8565b82525050565b6125c781612fc8565b82525050565b6125de6125d982612fc8565b613121565b82525050565b60006125ef82612f28565b6125f98185612f56565b935061260483612f18565b8060005b8381101561263557815161261c8882612597565b975061262783612f49565b925050600181019050612608565b5085935050505092915050565b61264b81612fda565b82525050565b61265a81612fe6565b82525050565b61266981612ff0565b82525050565b600061267a82612f33565b6126848185612f78565b9350612694818560208601613074565b80840191505092915050565b6126a981613053565b82525050565b60006126ba82612f3e565b6126c48185612f83565b93506126d4818560208601613074565b6126dd816131ad565b840191505092915050565b60006126f5601783612f83565b9150612700826131cb565b602082019050919050565b6000612718601283612f83565b9150612723826131f4565b602082019050919050565b600061273b602683612f83565b91506127468261321d565b604082019050919050565b600061275e601583612f83565b91506127698261326c565b602082019050919050565b6000612781601d83612f83565b915061278c82613295565b602082019050919050565b60006127a4602683612f83565b91506127af826132be565b604082019050919050565b60006127c7602e83612f83565b91506127d28261330d565b604082019050919050565b60006127ea601c83612f83565b91506127f58261335c565b602082019050919050565b600061280d602083612f83565b915061281882613385565b602082019050919050565b6000612830600083612f67565b915061283b826133ae565b600082019050919050565b6000612853600083612f78565b915061285e826133ae565b600082019050919050565b6000612876601983612f83565b9150612881826133b1565b602082019050919050565b6000612899601d83612f83565b91506128a4826133da565b602082019050919050565b60006128bc602b83612f83565b91506128c782613403565b604082019050919050565b60006128df601a83612f83565b91506128ea82613452565b602082019050919050565b6000612902602a83612f83565b915061290d8261347b565b604082019050919050565b6000612925601783612f83565b9150612930826134ca565b602082019050919050565b6000612948601e83612f83565b9150612953826134f3565b602082019050919050565b60a08201600082015161297460008501826129c6565b5060208201516129876020850182612651565b50604082015161299a60408501826125af565b5060608201516129ad60608501826125af565b5060808201516129c060808501826129fb565b50505050565b6129cf8161303c565b82525050565b6129de8161303c565b82525050565b6129f56129f08261303c565b613145565b82525050565b612a0481613046565b82525050565b6000612a16828461266f565b915081905092915050565b6000612a2c82612846565b9150819050919050565b6000612a4282876129e4565b602082019150612a5282866125cd565b601482019150612a6282856129e4565b602082019150612a7282846129e4565b60208201915081905095945050505050565b6000602082019050612a9960008301846125be565b92915050565b6000606082019050612ab460008301866125be565b612ac160208301856125be565b612ace60408301846129d5565b949350505050565b600060a082019050612aeb60008301876125be565b612af860208301866125be565b612b0560408301856129d5565b612b1260608301846126a0565b8181036080830152612b2381612823565b905095945050505050565b6000608082019050612b4360008301866125be565b612b5060208301856125be565b612b5d60408301846129d5565b8181036060830152612b6e81612823565b9050949350505050565b6000604082019050612b8d60008301856125be565b612b9a60208301846129d5565b9392505050565b60006020820190508181036000830152612bbb81846125e4565b905092915050565b6000602082019050612bd86000830184612642565b92915050565b6000602082019050612bf36000830184612660565b92915050565b60006020820190508181036000830152612c1381846126af565b905092915050565b60006020820190508181036000830152612c34816126e8565b9050919050565b60006020820190508181036000830152612c548161270b565b9050919050565b60006020820190508181036000830152612c748161272e565b9050919050565b60006020820190508181036000830152612c9481612751565b9050919050565b60006020820190508181036000830152612cb481612774565b9050919050565b60006020820190508181036000830152612cd481612797565b9050919050565b60006020820190508181036000830152612cf4816127ba565b9050919050565b60006020820190508181036000830152612d14816127dd565b9050919050565b60006020820190508181036000830152612d3481612800565b9050919050565b60006020820190508181036000830152612d5481612869565b9050919050565b60006020820190508181036000830152612d748161288c565b9050919050565b60006020820190508181036000830152612d94816128af565b9050919050565b60006020820190508181036000830152612db4816128d2565b9050919050565b60006020820190508181036000830152612dd4816128f5565b9050919050565b60006020820190508181036000830152612df481612918565b9050919050565b60006020820190508181036000830152612e148161293b565b9050919050565b600060a082019050612e30600083018461295e565b92915050565b6000602082019050612e4b60008301846129d5565b92915050565b6000608082019050612e6660008301876129d5565b612e7360208301866129d5565b612e8060408301856129d5565b612e8d60608301846129d5565b95945050505050565b6000612ea0612eb1565b9050612eac82826130a7565b919050565b6000604051905090565b600067ffffffffffffffff821115612ed657612ed561317e565b5b602082029050602081019050919050565b600067ffffffffffffffff821115612f0257612f0161317e565b5b612f0b826131ad565b9050602081019050919050565b6000819050602082019050919050565b600081519050919050565b600081519050919050565b600081519050919050565b6000602082019050919050565b600082825260208201905092915050565b600082825260208201905092915050565b600081905092915050565b600082825260208201905092915050565b6000612f9f8261303c565b9150612faa8361303c565b925082821015612fbd57612fbc61314f565b5b828203905092915050565b6000612fd38261301c565b9050919050565b60008115159050919050565b6000819050919050565b60007fffffffff0000000000000000000000000000000000000000000000000000000082169050919050565b600073ffffffffffffffffffffffffffffffffffffffff82169050919050565b6000819050919050565b600060ff82169050919050565b600061305e8261303c565b9050919050565b82818337600083830152505050565b60005b83811015613092578082015181840152602081019050613077565b838111156130a1576000848401525b50505050565b6130b0826131ad565b810181811067ffffffffffffffff821117156130cf576130ce61317e565b5b80604052505050565b60006130e38261303c565b91507fffffffffffffffffffffffffffffffffffffffffffffffffffffffffffffffff8214156131165761311561314f565b5b600182019050919050565b600061312c82613133565b9050919050565b600061313e826131be565b9050919050565b6000819050919050565b7f4e487b7100000000000000000000000000000000000000000000000000000000600052601160045260246000fd5b7f4e487b7100000000000000000000000000000000000000000000000000000000600052604160045260246000fd5b6000601f19601f8301169050919050565b60008160601b9050919050565b7f4339385661756c743a20496e76616c69642070726f6f66000000000000000000600082015250565b7f4339385661756c743a2052656465656d65640000000000000000000000000000600082015250565b7f4f776e61626c653a206e6577206f776e657220697320746865207a65726f206160008201527f6464726573730000000000000000000000000000000000000000000000000000602082015250565b7f4339385661756c743a20496e76616c6964206665650000000000000000000000600082015250565b7f4339385661756c743a20496e76616c696420746f6b656e206f776e6572000000600082015250565b7f416464726573733a20696e73756666696369656e742062616c616e636520666f60008201527f722063616c6c0000000000000000000000000000000000000000000000000000602082015250565b7f496e697469616c697a61626c653a20636f6e747261637420697320616c72656160008201527f647920696e697469616c697a6564000000000000000000000000000000000000602082015250565b7f4339385661756c743a20496e73756666696369656e7420746f6b656e00000000600082015250565b7f4f776e61626c653a2063616c6c6572206973206e6f7420746865206f776e6572600082015250565b50565b7f4339385661756c743a205363686564756c65206c6f636b656400000000000000600082015250565b7f416464726573733a2063616c6c20746f206e6f6e2d636f6e7472616374000000600082015250565b7f496e697469616c697a61626c653a20636f6e7472616374206973206e6f74206960008201527f6e697469616c697a696e67000000000000000000000000000000000000000000602082015250565b7f4339385661756c743a20496e76616c6964207363686564756c65000000000000600082015250565b7f5361666545524332303a204552433230206f7065726174696f6e20646964206e60008201527f6f74207375636365656400000000000000000000000000000000000000000000602082015250565b7f4339385661756c743a20496e76616c6964206576656e74000000000000000000600082015250565b7f4339385661756c743a20556e61626c6520746f20636861726765206665650000600082015250565b61352581612fc8565b811461353057600080fd5b50565b61353c81612fda565b811461354757600080fd5b50565b61355381612ff0565b811461355e57600080fd5b50565b61356a8161303c565b811461357557600080fd5b5056fea26469706673582212209ac65da8f24c87a78692c4ae0396664680b2fbe136fe737e58738811d9eda94c64736f6c63430008010033",
  "linkReferences": {},
  "deployedLinkReferences": {}
}