{
  "_format": "hh-sol-artifact-1",
  "contractName": "NFT1155",
  "sourceName": "contracts/erc1155.sol",
  "abi": [
    {
      "inputs": [],
      "stateMutability": "nonpayable",
      "type": "constructor"
    },
    {
      "anonymous": false,
      "inputs": [
        {
          "indexed": true,
          "internalType": "address",
          "name": "account",
          "type": "address"
        },
        {
          "indexed": true,
          "internalType": "address",
          "name": "operator",
          "type": "address"
        },
        {
          "indexed": false,
          "internalType": "bool",
          "name": "approved",
          "type": "bool"
        }
      ],
      "name": "ApprovalForAll",
      "type": "event"
    },
    {
      "anonymous": false,
      "inputs": [
        {
          "indexed": true,
          "internalType": "address",
          "name": "previousOwner",
          "type": "address"
        },
        {
          "indexed": true,
          "internalType": "address",
          "name": "newOwner",
          "type": "address"
        }
      ],
      "name": "OwnershipTransferred",
      "type": "event"
    },
    {
      "anonymous": false,
      "inputs": [
        {
          "indexed": true,
          "internalType": "address",
          "name": "operator",
          "type": "address"
        },
        {
          "indexed": true,
          "internalType": "address",
          "name": "from",
          "type": "address"
        },
        {
          "indexed": true,
          "internalType": "address",
          "name": "to",
          "type": "address"
        },
        {
          "indexed": false,
          "internalType": "uint256[]",
          "name": "ids",
          "type": "uint256[]"
        },
        {
          "indexed": false,
          "internalType": "uint256[]",
          "name": "values",
          "type": "uint256[]"
        }
      ],
      "name": "TransferBatch",
      "type": "event"
    },
    {
      "anonymous": false,
      "inputs": [
        {
          "indexed": true,
          "internalType": "address",
          "name": "operator",
          "type": "address"
        },
        {
          "indexed": true,
          "internalType": "address",
          "name": "from",
          "type": "address"
        },
        {
          "indexed": true,
          "internalType": "address",
          "name": "to",
          "type": "address"
        },
        {
          "indexed": false,
          "internalType": "uint256",
          "name": "id",
          "type": "uint256"
        },
        {
          "indexed": false,
          "internalType": "uint256",
          "name": "value",
          "type": "uint256"
        }
      ],
      "name": "TransferSingle",
      "type": "event"
    },
    {
      "anonymous": false,
      "inputs": [
        {
          "indexed": false,
          "internalType": "string",
          "name": "value",
          "type": "string"
        },
        {
          "indexed": true,
          "internalType": "uint256",
          "name": "id",
          "type": "uint256"
        }
      ],
      "name": "URI",
      "type": "event"
    },
    {
      "inputs": [
        {
          "internalType": "address",
          "name": "account",
          "type": "address"
        },
        {
          "internalType": "uint256",
          "name": "id",
          "type": "uint256"
        }
      ],
      "name": "balanceOf",
      "outputs": [
        {
          "internalType": "uint256",
          "name": "",
          "type": "uint256"
        }
      ],
      "stateMutability": "view",
      "type": "function"
    },
    {
      "inputs": [
        {
          "internalType": "address[]",
          "name": "accounts",
          "type": "address[]"
        },
        {
          "internalType": "uint256[]",
          "name": "ids",
          "type": "uint256[]"
        }
      ],
      "name": "balanceOfBatch",
      "outputs": [
        {
          "internalType": "uint256[]",
          "name": "",
          "type": "uint256[]"
        }
      ],
      "stateMutability": "view",
      "type": "function"
    },
    {
      "inputs": [
        {
          "internalType": "address",
          "name": "account",
          "type": "address"
        },
        {
          "internalType": "address",
          "name": "operator",
          "type": "address"
        }
      ],
      "name": "isApprovedForAll",
      "outputs": [
        {
          "internalType": "bool",
          "name": "",
          "type": "bool"
        }
      ],
      "stateMutability": "view",
      "type": "function"
    },
    {
      "inputs": [
        {
          "internalType": "address",
          "name": "account",
          "type": "address"
        },
        {
          "internalType": "uint256",
          "name": "id",
          "type": "uint256"
        },
        {
          "internalType": "uint256",
          "name": "amount",
          "type": "uint256"
        },
        {
          "internalType": "bytes",
          "name": "data",
          "type": "bytes"
        }
      ],
      "name": "mint",
      "outputs": [],
      "stateMutability": "nonpayable",
      "type": "function"
    },
    {
      "inputs": [],
      "name": "owner",
      "outputs": [
        {
          "internalType": "address",
          "name": "",
          "type": "address"
        }
      ],
      "stateMutability": "view",
      "type": "function"
    },
    {
      "inputs": [],
      "name": "renounceOwnership",
      "outputs": [],
      "stateMutability": "nonpayable",
      "type": "function"
    },
    {
      "inputs": [
        {
          "internalType": "address",
          "name": "from",
          "type": "address"
        },
        {
          "internalType": "address",
          "name": "to",
          "type": "address"
        },
        {
          "internalType": "uint256[]",
          "name": "ids",
          "type": "uint256[]"
        },
        {
          "internalType": "uint256[]",
          "name": "amounts",
          "type": "uint256[]"
        },
        {
          "internalType": "bytes",
          "name": "data",
          "type": "bytes"
        }
      ],
      "name": "safeBatchTransferFrom",
      "outputs": [],
      "stateMutability": "nonpayable",
      "type": "function"
    },
    {
      "inputs": [
        {
          "internalType": "address",
          "name": "from",
          "type": "address"
        },
        {
          "internalType": "address",
          "name": "to",
          "type": "address"
        },
        {
          "internalType": "uint256",
          "name": "id",
          "type": "uint256"
        },
        {
          "internalType": "uint256",
          "name": "amount",
          "type": "uint256"
        },
        {
          "internalType": "bytes",
          "name": "data",
          "type": "bytes"
        }
      ],
      "name": "safeTransferFrom",
      "outputs": [],
      "stateMutability": "nonpayable",
      "type": "function"
    },
    {
      "inputs": [
        {
          "internalType": "address",
          "name": "operator",
          "type": "address"
        },
        {
          "internalType": "bool",
          "name": "approved",
          "type": "bool"
        }
      ],
      "name": "setApprovalForAll",
      "outputs": [],
      "stateMutability": "nonpayable",
      "type": "function"
    },
    {
      "inputs": [
        {
          "internalType": "bytes4",
          "name": "interfaceId",
          "type": "bytes4"
        }
      ],
      "name": "supportsInterface",
      "outputs": [
        {
          "internalType": "bool",
          "name": "",
          "type": "bool"
        }
      ],
      "stateMutability": "view",
      "type": "function"
    },
    {
      "inputs": [
        {
          "internalType": "address",
          "name": "newOwner",
          "type": "address"
        }
      ],
      "name": "transferOwnership",
      "outputs": [],
      "stateMutability": "nonpayable",
      "type": "function"
    },
    {
      "inputs": [
        {
          "internalType": "uint256",
          "name": "",
          "type": "uint256"
        }
      ],
      "name": "uri",
      "outputs": [
        {
          "internalType": "string",
          "name": "",
          "type": "string"
        }
      ],
      "stateMutability": "view",
      "type": "function"
    }
  ],
  "bytecode": "0x60806040523480156200001157600080fd5b506040518060200160405280600081525062000033816200005a60201b60201c565b5062000054620000486200007660201b60201c565b6200007e60201b60201c565b62000259565b80600290805190602001906200007292919062000144565b5050565b600033905090565b6000600360009054906101000a900473ffffffffffffffffffffffffffffffffffffffff16905081600360006101000a81548173ffffffffffffffffffffffffffffffffffffffff021916908373ffffffffffffffffffffffffffffffffffffffff1602179055508173ffffffffffffffffffffffffffffffffffffffff168173ffffffffffffffffffffffffffffffffffffffff167f8be0079c531659141344cd1fd0a4f28419497f9722a3daafe3b4186f6b6457e060405160405180910390a35050565b8280546200015290620001f4565b90600052602060002090601f016020900481019282620001765760008555620001c2565b82601f106200019157805160ff1916838001178555620001c2565b82800160010185558215620001c2579182015b82811115620001c1578251825591602001919060010190620001a4565b5b509050620001d19190620001d5565b5090565b5b80821115620001f0576000816000905550600101620001d6565b5090565b600060028204905060018216806200020d57607f821691505b602082108114156200022457620002236200022a565b5b50919050565b7f4e487b7100000000000000000000000000000000000000000000000000000000600052602260045260246000fd5b612c9c80620002696000396000f3fe608060405234801561001057600080fd5b50600436106100b35760003560e01c8063731133e911610071578063731133e91461019e5780638da5cb5b146101ba578063a22cb465146101d8578063e985e9c5146101f4578063f242432a14610224578063f2fde38b14610240576100b3565b8062fdd58e146100b857806301ffc9a7146100e85780630e89341c146101185780632eb2c2d6146101485780634e1273f414610164578063715018a614610194575b600080fd5b6100d260048036038101906100cd9190611ca5565b61025c565b6040516100df91906123fe565b60405180910390f35b61010260048036038101906100fd9190611dc8565b610325565b60405161010f9190612241565b60405180910390f35b610132600480360381019061012d9190611e1a565b610407565b60405161013f919061225c565b60405180910390f35b610162600480360381019061015d9190611b1b565b61049b565b005b61017e60048036038101906101799190611d5c565b61053c565b60405161018b91906121e8565b60405180910390f35b61019c6106ed565b005b6101b860048036038101906101b39190611ce1565b610701565b005b6101c261071b565b6040516101cf919061210b565b60405180910390f35b6101f260048036038101906101ed9190611c69565b610745565b005b61020e60048036038101906102099190611adf565b61075b565b60405161021b9190612241565b60405180910390f35b61023e60048036038101906102399190611bda565b6107ef565b005b61025a60048036038101906102559190611ab6565b610890565b005b60008073ffffffffffffffffffffffffffffffffffffffff168373ffffffffffffffffffffffffffffffffffffffff1614156102cd576040517f08c379a00000000000000000000000000000000000000000000000000000000081526004016102c4906122fe565b60405180910390fd5b60008083815260200190815260200160002060008473ffffffffffffffffffffffffffffffffffffffff1673ffffffffffffffffffffffffffffffffffffffff16815260200190815260200160002054905092915050565b60007fd9b67a26000000000000000000000000000000000000000000000000000000007bffffffffffffffffffffffffffffffffffffffffffffffffffffffff1916827bffffffffffffffffffffffffffffffffffffffffffffffffffffffff191614806103f057507f0e89341c000000000000000000000000000000000000000000000000000000007bffffffffffffffffffffffffffffffffffffffffffffffffffffffff1916827bffffffffffffffffffffffffffffffffffffffffffffffffffffffff1916145b8061040057506103ff82610914565b5b9050919050565b6060600280546104169061266d565b80601f01602080910402602001604051908101604052809291908181526020018280546104429061266d565b801561048f5780601f106104645761010080835404028352916020019161048f565b820191906000526020600020905b81548152906001019060200180831161047257829003601f168201915b50505050509050919050565b6104a361097e565b73ffffffffffffffffffffffffffffffffffffffff168573ffffffffffffffffffffffffffffffffffffffff1614806104e957506104e8856104e361097e565b61075b565b5b610528576040517f08c379a000000000000000000000000000000000000000000000000000000000815260040161051f9061229e565b60405180910390fd5b6105358585858585610986565b5050505050565b60608151835114610582576040517f08c379a00000000000000000000000000000000000000000000000000000000081526004016105799061239e565b60405180910390fd5b6000835167ffffffffffffffff8111156105c5577f4e487b7100000000000000000000000000000000000000000000000000000000600052604160045260246000fd5b6040519080825280602002602001820160405280156105f35781602001602082028036833780820191505090505b50905060005b84518110156106e25761068c85828151811061063e577f4e487b7100000000000000000000000000000000000000000000000000000000600052603260045260246000fd5b602002602001015185838151811061067f577f4e487b7100000000000000000000000000000000000000000000000000000000600052603260045260246000fd5b602002602001015161025c565b8282815181106106c5577f4e487b7100000000000000000000000000000000000000000000000000000000600052603260045260246000fd5b602002602001018181525050806106db906126d0565b90506105f9565b508091505092915050565b6106f5610cf4565b6106ff6000610d72565b565b610709610cf4565b61071584848484610e38565b50505050565b6000600360009054906101000a900473ffffffffffffffffffffffffffffffffffffffff16905090565b61075761075061097e565b8383610fe9565b5050565b6000600160008473ffffffffffffffffffffffffffffffffffffffff1673ffffffffffffffffffffffffffffffffffffffff16815260200190815260200160002060008373ffffffffffffffffffffffffffffffffffffffff1673ffffffffffffffffffffffffffffffffffffffff16815260200190815260200160002060009054906101000a900460ff16905092915050565b6107f761097e565b73ffffffffffffffffffffffffffffffffffffffff168573ffffffffffffffffffffffffffffffffffffffff16148061083d575061083c8561083761097e565b61075b565b5b61087c576040517f08c379a00000000000000000000000000000000000000000000000000000000081526004016108739061229e565b60405180910390fd5b6108898585858585611156565b5050505050565b610898610cf4565b600073ffffffffffffffffffffffffffffffffffffffff168173ffffffffffffffffffffffffffffffffffffffff161415610908576040517f08c379a00000000000000000000000000000000000000000000000000000000081526004016108ff906122de565b60405180910390fd5b61091181610d72565b50565b60007f01ffc9a7000000000000000000000000000000000000000000000000000000007bffffffffffffffffffffffffffffffffffffffffffffffffffffffff1916827bffffffffffffffffffffffffffffffffffffffffffffffffffffffff1916149050919050565b600033905090565b81518351146109ca576040517f08c379a00000000000000000000000000000000000000000000000000000000081526004016109c1906123be565b60405180910390fd5b600073ffffffffffffffffffffffffffffffffffffffff168473ffffffffffffffffffffffffffffffffffffffff161415610a3a576040517f08c379a0000000000000000000000000000000000000000000000000000000008152600401610a319061231e565b60405180910390fd5b6000610a4461097e565b9050610a548187878787876113f2565b60005b8451811015610c51576000858281518110610a9b577f4e487b7100000000000000000000000000000000000000000000000000000000600052603260045260246000fd5b602002602001015190506000858381518110610ae0577f4e487b7100000000000000000000000000000000000000000000000000000000600052603260045260246000fd5b60200260200101519050600080600084815260200190815260200160002060008b73ffffffffffffffffffffffffffffffffffffffff1673ffffffffffffffffffffffffffffffffffffffff16815260200190815260200160002054905081811015610b81576040517f08c379a0000000000000000000000000000000000000000000000000000000008152600401610b789061233e565b60405180910390fd5b81810360008085815260200190815260200160002060008c73ffffffffffffffffffffffffffffffffffffffff1673ffffffffffffffffffffffffffffffffffffffff168152602001908152602001600020819055508160008085815260200190815260200160002060008b73ffffffffffffffffffffffffffffffffffffffff1673ffffffffffffffffffffffffffffffffffffffff1681526020019081526020016000206000828254610c369190612561565b9250508190555050505080610c4a906126d0565b9050610a57565b508473ffffffffffffffffffffffffffffffffffffffff168673ffffffffffffffffffffffffffffffffffffffff168273ffffffffffffffffffffffffffffffffffffffff167f4a39dc06d4c0dbc64b70af90fd698a233a518aa5d07e595d983b8c0526c8f7fb8787604051610cc892919061220a565b60405180910390a4610cde8187878787876113fa565b610cec818787878787611402565b505050505050565b610cfc61097e565b73ffffffffffffffffffffffffffffffffffffffff16610d1a61071b565b73ffffffffffffffffffffffffffffffffffffffff1614610d70576040517f08c379a0000000000000000000000000000000000000000000000000000000008152600401610d679061235e565b60405180910390fd5b565b6000600360009054906101000a900473ffffffffffffffffffffffffffffffffffffffff16905081600360006101000a81548173ffffffffffffffffffffffffffffffffffffffff021916908373ffffffffffffffffffffffffffffffffffffffff1602179055508173ffffffffffffffffffffffffffffffffffffffff168173ffffffffffffffffffffffffffffffffffffffff167f8be0079c531659141344cd1fd0a4f28419497f9722a3daafe3b4186f6b6457e060405160405180910390a35050565b600073ffffffffffffffffffffffffffffffffffffffff168473ffffffffffffffffffffffffffffffffffffffff161415610ea8576040517f08c379a0000000000000000000000000000000000000000000000000000000008152600401610e9f906123de565b60405180910390fd5b6000610eb261097e565b90506000610ebf856115e9565b90506000610ecc856115e9565b9050610edd836000898585896113f2565b8460008088815260200190815260200160002060008973ffffffffffffffffffffffffffffffffffffffff1673ffffffffffffffffffffffffffffffffffffffff1681526020019081526020016000206000828254610f3c9190612561565b925050819055508673ffffffffffffffffffffffffffffffffffffffff16600073ffffffffffffffffffffffffffffffffffffffff168473ffffffffffffffffffffffffffffffffffffffff167fc3d58168c5ae7397731d063d5bbf3d657854427343f4c083240f7aacaa2d0f628989604051610fba929190612419565b60405180910390a4610fd1836000898585896113fa565b610fe0836000898989896116af565b50505050505050565b8173ffffffffffffffffffffffffffffffffffffffff168373ffffffffffffffffffffffffffffffffffffffff161415611058576040517f08c379a000000000000000000000000000000000000000000000000000000000815260040161104f9061237e565b60405180910390fd5b80600160008573ffffffffffffffffffffffffffffffffffffffff1673ffffffffffffffffffffffffffffffffffffffff16815260200190815260200160002060008473ffffffffffffffffffffffffffffffffffffffff1673ffffffffffffffffffffffffffffffffffffffff16815260200190815260200160002060006101000a81548160ff0219169083151502179055508173ffffffffffffffffffffffffffffffffffffffff168373ffffffffffffffffffffffffffffffffffffffff167f17307eab39ab6107e8899845ad3d59bd9653f200f220920489ca2b5937696c31836040516111499190612241565b60405180910390a3505050565b600073ffffffffffffffffffffffffffffffffffffffff168473ffffffffffffffffffffffffffffffffffffffff1614156111c6576040517f08c379a00000000000000000000000000000000000000000000000000000000081526004016111bd9061231e565b60405180910390fd5b60006111d061097e565b905060006111dd856115e9565b905060006111ea856115e9565b90506111fa8389898585896113f2565b600080600088815260200190815260200160002060008a73ffffffffffffffffffffffffffffffffffffffff1673ffffffffffffffffffffffffffffffffffffffff16815260200190815260200160002054905085811015611291576040517f08c379a00000000000000000000000000000000000000000000000000000000081526004016112889061233e565b60405180910390fd5b85810360008089815260200190815260200160002060008b73ffffffffffffffffffffffffffffffffffffffff1673ffffffffffffffffffffffffffffffffffffffff168152602001908152602001600020819055508560008089815260200190815260200160002060008a73ffffffffffffffffffffffffffffffffffffffff1673ffffffffffffffffffffffffffffffffffffffff16815260200190815260200160002060008282546113469190612561565b925050819055508773ffffffffffffffffffffffffffffffffffffffff168973ffffffffffffffffffffffffffffffffffffffff168573ffffffffffffffffffffffffffffffffffffffff167fc3d58168c5ae7397731d063d5bbf3d657854427343f4c083240f7aacaa2d0f628a8a6040516113c3929190612419565b60405180910390a46113d9848a8a86868a6113fa565b6113e7848a8a8a8a8a6116af565b505050505050505050565b505050505050565b505050505050565b6114218473ffffffffffffffffffffffffffffffffffffffff16611896565b156115e1578373ffffffffffffffffffffffffffffffffffffffff1663bc197c8187878686866040518663ffffffff1660e01b8152600401611467959493929190612126565b602060405180830381600087803b15801561148157600080fd5b505af19250505080156114b257506040513d601f19601f820116820180604052508101906114af9190611df1565b60015b611558576114be6127a6565b806308c379a0141561151b57506114d3612b74565b806114de575061151d565b806040517f08c379a0000000000000000000000000000000000000000000000000000000008152600401611512919061225c565b60405180910390fd5b505b6040517f08c379a000000000000000000000000000000000000000000000000000000000815260040161154f9061227e565b60405180910390fd5b63bc197c8160e01b7bffffffffffffffffffffffffffffffffffffffffffffffffffffffff1916817bffffffffffffffffffffffffffffffffffffffffffffffffffffffff1916146115df576040517f08c379a00000000000000000000000000000000000000000000000000000000081526004016115d6906122be565b60405180910390fd5b505b505050505050565b60606000600167ffffffffffffffff81111561162e577f4e487b7100000000000000000000000000000000000000000000000000000000600052604160045260246000fd5b60405190808252806020026020018201604052801561165c5781602001602082028036833780820191505090505b509050828160008151811061169a577f4e487b7100000000000000000000000000000000000000000000000000000000600052603260045260246000fd5b60200260200101818152505080915050919050565b6116ce8473ffffffffffffffffffffffffffffffffffffffff16611896565b1561188e578373ffffffffffffffffffffffffffffffffffffffff1663f23a6e6187878686866040518663ffffffff1660e01b815260040161171495949392919061218e565b602060405180830381600087803b15801561172e57600080fd5b505af192505050801561175f57506040513d601f19601f8201168201806040525081019061175c9190611df1565b60015b6118055761176b6127a6565b806308c379a014156117c85750611780612b74565b8061178b57506117ca565b806040517f08c379a00000000000000000000000000000000000000000000000000000000081526004016117bf919061225c565b60405180910390fd5b505b6040517f08c379a00000000000000000000000000000000000000000000000000000000081526004016117fc9061227e565b60405180910390fd5b63f23a6e6160e01b7bffffffffffffffffffffffffffffffffffffffffffffffffffffffff1916817bffffffffffffffffffffffffffffffffffffffffffffffffffffffff19161461188c576040517f08c379a0000000000000000000000000000000000000000000000000000000008152600401611883906122be565b60405180910390fd5b505b505050505050565b6000808273ffffffffffffffffffffffffffffffffffffffff163b119050919050565b60006118cc6118c784612467565b612442565b905080838252602082019050828560208602820111156118eb57600080fd5b60005b8581101561191b578161190188826119cf565b8452602084019350602083019250506001810190506118ee565b5050509392505050565b600061193861193384612493565b612442565b9050808382526020820190508285602086028201111561195757600080fd5b60005b85811015611987578161196d8882611aa1565b84526020840193506020830192505060018101905061195a565b5050509392505050565b60006119a461199f846124bf565b612442565b9050828152602081018484840111156119bc57600080fd5b6119c784828561262b565b509392505050565b6000813590506119de81612c0a565b92915050565b600082601f8301126119f557600080fd5b8135611a058482602086016118b9565b91505092915050565b600082601f830112611a1f57600080fd5b8135611a2f848260208601611925565b91505092915050565b600081359050611a4781612c21565b92915050565b600081359050611a5c81612c38565b92915050565b600081519050611a7181612c38565b92915050565b600082601f830112611a8857600080fd5b8135611a98848260208601611991565b91505092915050565b600081359050611ab081612c4f565b92915050565b600060208284031215611ac857600080fd5b6000611ad6848285016119cf565b91505092915050565b60008060408385031215611af257600080fd5b6000611b00858286016119cf565b9250506020611b11858286016119cf565b9150509250929050565b600080600080600060a08688031215611b3357600080fd5b6000611b41888289016119cf565b9550506020611b52888289016119cf565b945050604086013567ffffffffffffffff811115611b6f57600080fd5b611b7b88828901611a0e565b935050606086013567ffffffffffffffff811115611b9857600080fd5b611ba488828901611a0e565b925050608086013567ffffffffffffffff811115611bc157600080fd5b611bcd88828901611a77565b9150509295509295909350565b600080600080600060a08688031215611bf257600080fd5b6000611c00888289016119cf565b9550506020611c11888289016119cf565b9450506040611c2288828901611aa1565b9350506060611c3388828901611aa1565b925050608086013567ffffffffffffffff811115611c5057600080fd5b611c5c88828901611a77565b9150509295509295909350565b60008060408385031215611c7c57600080fd5b6000611c8a858286016119cf565b9250506020611c9b85828601611a38565b9150509250929050565b60008060408385031215611cb857600080fd5b6000611cc6858286016119cf565b9250506020611cd785828601611aa1565b9150509250929050565b60008060008060808587031215611cf757600080fd5b6000611d05878288016119cf565b9450506020611d1687828801611aa1565b9350506040611d2787828801611aa1565b925050606085013567ffffffffffffffff811115611d4457600080fd5b611d5087828801611a77565b91505092959194509250565b60008060408385031215611d6f57600080fd5b600083013567ffffffffffffffff811115611d8957600080fd5b611d95858286016119e4565b925050602083013567ffffffffffffffff811115611db257600080fd5b611dbe85828601611a0e565b9150509250929050565b600060208284031215611dda57600080fd5b6000611de884828501611a4d565b91505092915050565b600060208284031215611e0357600080fd5b6000611e1184828501611a62565b91505092915050565b600060208284031215611e2c57600080fd5b6000611e3a84828501611aa1565b91505092915050565b6000611e4f83836120ed565b60208301905092915050565b611e64816125b7565b82525050565b6000611e7582612500565b611e7f818561252e565b9350611e8a836124f0565b8060005b83811015611ebb578151611ea28882611e43565b9750611ead83612521565b925050600181019050611e8e565b5085935050505092915050565b611ed1816125c9565b82525050565b6000611ee28261250b565b611eec818561253f565b9350611efc81856020860161263a565b611f05816127c8565b840191505092915050565b6000611f1b82612516565b611f258185612550565b9350611f3581856020860161263a565b611f3e816127c8565b840191505092915050565b6000611f56603483612550565b9150611f61826127e6565b604082019050919050565b6000611f79602f83612550565b9150611f8482612835565b604082019050919050565b6000611f9c602883612550565b9150611fa782612884565b604082019050919050565b6000611fbf602683612550565b9150611fca826128d3565b604082019050919050565b6000611fe2602a83612550565b9150611fed82612922565b604082019050919050565b6000612005602583612550565b915061201082612971565b604082019050919050565b6000612028602a83612550565b9150612033826129c0565b604082019050919050565b600061204b602083612550565b915061205682612a0f565b602082019050919050565b600061206e602983612550565b915061207982612a38565b604082019050919050565b6000612091602983612550565b915061209c82612a87565b604082019050919050565b60006120b4602883612550565b91506120bf82612ad6565b604082019050919050565b60006120d7602183612550565b91506120e282612b25565b604082019050919050565b6120f681612621565b82525050565b61210581612621565b82525050565b60006020820190506121206000830184611e5b565b92915050565b600060a08201905061213b6000830188611e5b565b6121486020830187611e5b565b818103604083015261215a8186611e6a565b9050818103606083015261216e8185611e6a565b905081810360808301526121828184611ed7565b90509695505050505050565b600060a0820190506121a36000830188611e5b565b6121b06020830187611e5b565b6121bd60408301866120fc565b6121ca60608301856120fc565b81810360808301526121dc8184611ed7565b90509695505050505050565b600060208201905081810360008301526122028184611e6a565b905092915050565b600060408201905081810360008301526122248185611e6a565b905081810360208301526122388184611e6a565b90509392505050565b60006020820190506122566000830184611ec8565b92915050565b600060208201905081810360008301526122768184611f10565b905092915050565b6000602082019050818103600083015261229781611f49565b9050919050565b600060208201905081810360008301526122b781611f6c565b9050919050565b600060208201905081810360008301526122d781611f8f565b9050919050565b600060208201905081810360008301526122f781611fb2565b9050919050565b6000602082019050818103600083015261231781611fd5565b9050919050565b6000602082019050818103600083015261233781611ff8565b9050919050565b600060208201905081810360008301526123578161201b565b9050919050565b600060208201905081810360008301526123778161203e565b9050919050565b6000602082019050818103600083015261239781612061565b9050919050565b600060208201905081810360008301526123b781612084565b9050919050565b600060208201905081810360008301526123d7816120a7565b9050919050565b600060208201905081810360008301526123f7816120ca565b9050919050565b600060208201905061241360008301846120fc565b92915050565b600060408201905061242e60008301856120fc565b61243b60208301846120fc565b9392505050565b600061244c61245d565b9050612458828261269f565b919050565b6000604051905090565b600067ffffffffffffffff82111561248257612481612777565b5b602082029050602081019050919050565b600067ffffffffffffffff8211156124ae576124ad612777565b5b602082029050602081019050919050565b600067ffffffffffffffff8211156124da576124d9612777565b5b6124e3826127c8565b9050602081019050919050565b6000819050602082019050919050565b600081519050919050565b600081519050919050565b600081519050919050565b6000602082019050919050565b600082825260208201905092915050565b600082825260208201905092915050565b600082825260208201905092915050565b600061256c82612621565b915061257783612621565b9250827fffffffffffffffffffffffffffffffffffffffffffffffffffffffffffffffff038211156125ac576125ab612719565b5b828201905092915050565b60006125c282612601565b9050919050565b60008115159050919050565b60007fffffffff0000000000000000000000000000000000000000000000000000000082169050919050565b600073ffffffffffffffffffffffffffffffffffffffff82169050919050565b6000819050919050565b82818337600083830152505050565b60005b8381101561265857808201518184015260208101905061263d565b83811115612667576000848401525b50505050565b6000600282049050600182168061268557607f821691505b6020821081141561269957612698612748565b5b50919050565b6126a8826127c8565b810181811067ffffffffffffffff821117156126c7576126c6612777565b5b80604052505050565b60006126db82612621565b91507fffffffffffffffffffffffffffffffffffffffffffffffffffffffffffffffff82141561270e5761270d612719565b5b600182019050919050565b7f4e487b7100000000000000000000000000000000000000000000000000000000600052601160045260246000fd5b7f4e487b7100000000000000000000000000000000000000000000000000000000600052602260045260246000fd5b7f4e487b7100000000000000000000000000000000000000000000000000000000600052604160045260246000fd5b600060033d11156127c55760046000803e6127c26000516127d9565b90505b90565b6000601f19601f8301169050919050565b60008160e01c9050919050565b7f455243313135353a207472616e7366657220746f206e6f6e204552433131353560008201527f526563656976657220696d706c656d656e746572000000000000000000000000602082015250565b7f455243313135353a2063616c6c6572206973206e6f7420746f6b656e206f776e60008201527f6572206e6f7220617070726f7665640000000000000000000000000000000000602082015250565b7f455243313135353a204552433131353552656365697665722072656a6563746560008201527f6420746f6b656e73000000000000000000000000000000000000000000000000602082015250565b7f4f776e61626c653a206e6577206f776e657220697320746865207a65726f206160008201527f6464726573730000000000000000000000000000000000000000000000000000602082015250565b7f455243313135353a2061646472657373207a65726f206973206e6f742061207660008201527f616c6964206f776e657200000000000000000000000000000000000000000000602082015250565b7f455243313135353a207472616e7366657220746f20746865207a65726f20616460008201527f6472657373000000000000000000000000000000000000000000000000000000602082015250565b7f455243313135353a20696e73756666696369656e742062616c616e636520666f60008201527f72207472616e7366657200000000000000000000000000000000000000000000602082015250565b7f4f776e61626c653a2063616c6c6572206973206e6f7420746865206f776e6572600082015250565b7f455243313135353a2073657474696e6720617070726f76616c2073746174757360008201527f20666f722073656c660000000000000000000000000000000000000000000000602082015250565b7f455243313135353a206163636f756e747320616e6420696473206c656e67746860008201527f206d69736d617463680000000000000000000000000000000000000000000000602082015250565b7f455243313135353a2069647320616e6420616d6f756e7473206c656e6774682060008201527f6d69736d61746368000000000000000000000000000000000000000000000000602082015250565b7f455243313135353a206d696e7420746f20746865207a65726f2061646472657360008201527f7300000000000000000000000000000000000000000000000000000000000000602082015250565b600060443d1015612b8457612c07565b612b8c61245d565b60043d036004823e80513d602482011167ffffffffffffffff82111715612bb4575050612c07565b808201805167ffffffffffffffff811115612bd25750505050612c07565b80602083010160043d038501811115612bef575050505050612c07565b612bfe8260200185018661269f565b82955050505050505b90565b612c13816125b7565b8114612c1e57600080fd5b50565b612c2a816125c9565b8114612c3557600080fd5b50565b612c41816125d5565b8114612c4c57600080fd5b50565b612c5881612621565b8114612c6357600080fd5b5056fea26469706673582212206fba55a847f1fb7b0f638e908526696619510c8a610477570ed0cff115d054e064736f6c63430008010033",
  "linkReferences": {},
  "deployedLinkReferences": {}
}