{
  "_format": "hh-sol-artifact-1",
  "contractName": "Coin98VaultFactory",
  "sourceName": "contracts/c98-vault-factory.sol",
  "abi": [
    {
      "inputs": [
        {
          "internalType": "address",
          "name": "_vaultImplementation",
          "type": "address"
        }
      ],
      "stateMutability": "nonpayable",
      "type": "constructor"
    },
    {
      "anonymous": false,
      "inputs": [
        {
          "indexed": true,
          "internalType": "address",
          "name": "vault",
          "type": "address"
        }
      ],
      "name": "Created",
      "type": "event"
    },
    {
      "anonymous": false,
      "inputs": [
        {
          "indexed": true,
          "internalType": "address",
          "name": "sender",
          "type": "address"
        },
        {
          "indexed": false,
          "internalType": "uint256",
          "name": "value",
          "type": "uint256"
        }
      ],
      "name": "Deposited",
      "type": "event"
    },
    {
      "anonymous": false,
      "inputs": [
        {
          "indexed": false,
          "internalType": "uint256",
          "name": "fee",
          "type": "uint256"
        }
      ],
      "name": "FeeUpdated",
      "type": "event"
    },
    {
      "anonymous": false,
      "inputs": [
        {
          "indexed": false,
          "internalType": "uint256",
          "name": "fee",
          "type": "uint256"
        }
      ],
      "name": "OwnerRewardUpdated",
      "type": "event"
    },
    {
      "anonymous": false,
      "inputs": [
        {
          "indexed": true,
          "internalType": "address",
          "name": "previousOwner",
          "type": "address"
        },
        {
          "indexed": true,
          "internalType": "address",
          "name": "newOwner",
          "type": "address"
        }
      ],
      "name": "OwnershipTransferred",
      "type": "event"
    },
    {
      "anonymous": false,
      "inputs": [
        {
          "indexed": true,
          "internalType": "address",
          "name": "owner",
          "type": "address"
        },
        {
          "indexed": true,
          "internalType": "address",
          "name": "recipient",
          "type": "address"
        },
        {
          "indexed": true,
          "internalType": "address",
          "name": "token",
          "type": "address"
        },
        {
          "indexed": false,
          "internalType": "uint256",
          "name": "value",
          "type": "uint256"
        }
      ],
      "name": "Withdrawn",
      "type": "event"
    },
    {
      "stateMutability": "payable",
      "type": "fallback"
    },
    {
      "inputs": [],
      "name": "acceptOwnership",
      "outputs": [],
      "stateMutability": "nonpayable",
      "type": "function"
    },
    {
      "inputs": [
        {
          "internalType": "address",
          "name": "owner_",
          "type": "address"
        },
        {
          "internalType": "bytes32",
          "name": "salt_",
          "type": "bytes32"
        }
      ],
      "name": "createVault",
      "outputs": [
        {
          "internalType": "address",
          "name": "",
          "type": "address"
        }
      ],
      "stateMutability": "nonpayable",
      "type": "function"
    },
    {
      "inputs": [],
      "name": "fee",
      "outputs": [
        {
          "internalType": "uint256",
          "name": "",
          "type": "uint256"
        }
      ],
      "stateMutability": "view",
      "type": "function"
    },
    {
      "inputs": [],
      "name": "gasLimit",
      "outputs": [
        {
          "internalType": "uint256",
          "name": "",
          "type": "uint256"
        }
      ],
      "stateMutability": "view",
      "type": "function"
    },
    {
      "inputs": [],
      "name": "getImplementation",
      "outputs": [
        {
          "internalType": "address",
          "name": "",
          "type": "address"
        }
      ],
      "stateMutability": "view",
      "type": "function"
    },
    {
      "inputs": [
        {
          "internalType": "bytes32",
          "name": "salt_",
          "type": "bytes32"
        }
      ],
      "name": "getVaultAddress",
      "outputs": [
        {
          "internalType": "address",
          "name": "",
          "type": "address"
        }
      ],
      "stateMutability": "view",
      "type": "function"
    },
    {
      "inputs": [],
      "name": "owner",
      "outputs": [
        {
          "internalType": "address",
          "name": "",
          "type": "address"
        }
      ],
      "stateMutability": "view",
      "type": "function"
    },
    {
      "inputs": [],
      "name": "ownerReward",
      "outputs": [
        {
          "internalType": "uint256",
          "name": "",
          "type": "uint256"
        }
      ],
      "stateMutability": "view",
      "type": "function"
    },
    {
      "inputs": [
        {
          "internalType": "uint256",
          "name": "fee_",
          "type": "uint256"
        },
        {
          "internalType": "uint256",
          "name": "reward_",
          "type": "uint256"
        }
      ],
      "name": "setFee",
      "outputs": [],
      "stateMutability": "nonpayable",
      "type": "function"
    },
    {
      "inputs": [
        {
          "internalType": "uint256",
          "name": "limit_",
          "type": "uint256"
        }
      ],
      "name": "setGasLimit",
      "outputs": [],
      "stateMutability": "nonpayable",
      "type": "function"
    },
    {
      "inputs": [
        {
          "internalType": "address",
          "name": "_newImplementation",
          "type": "address"
        }
      ],
      "name": "setImplementation",
      "outputs": [],
      "stateMutability": "nonpayable",
      "type": "function"
    },
    {
      "inputs": [
        {
          "internalType": "address",
          "name": "newOwner",
          "type": "address"
        }
      ],
      "name": "transferOwnership",
      "outputs": [],
      "stateMutability": "nonpayable",
      "type": "function"
    },
    {
      "inputs": [],
      "name": "vaults",
      "outputs": [
        {
          "internalType": "address[]",
          "name": "",
          "type": "address[]"
        }
      ],
      "stateMutability": "view",
      "type": "function"
    },
    {
      "inputs": [
        {
          "internalType": "address",
          "name": "token_",
          "type": "address"
        },
        {
          "internalType": "address",
          "name": "destination_",
          "type": "address"
        },
        {
          "internalType": "uint256",
          "name": "amount_",
          "type": "uint256"
        }
      ],
      "name": "withdraw",
      "outputs": [],
      "stateMutability": "nonpayable",
      "type": "function"
    },
    {
      "inputs": [
        {
          "internalType": "address",
          "name": "token_",
          "type": "address"
        },
        {
          "internalType": "address",
          "name": "destination_",
          "type": "address"
        },
        {
          "internalType": "uint256",
          "name": "tokenId_",
          "type": "uint256"
        },
        {
          "internalType": "uint256",
          "name": "amount",
          "type": "uint256"
        }
      ],
      "name": "withdrawNft1155",
      "outputs": [],
      "stateMutability": "nonpayable",
      "type": "function"
    },
    {
      "inputs": [
        {
          "internalType": "address",
          "name": "token_",
          "type": "address"
        },
        {
          "internalType": "address",
          "name": "destination_",
          "type": "address"
        },
        {
          "internalType": "uint256",
          "name": "tokenId_",
          "type": "uint256"
        }
      ],
      "name": "withdrawNft721",
      "outputs": [],
      "stateMutability": "nonpayable",
      "type": "function"
    },
    {
      "stateMutability": "payable",
      "type": "receive"
    }
  ],
  "bytecode": "0x60806040523480156200001157600080fd5b506040516200263838038062002638833981810160405281019062000037919062000153565b620000476200013460201b60201c565b806000806101000a81548173ffffffffffffffffffffffffffffffffffffffff021916908373ffffffffffffffffffffffffffffffffffffffff1602179055508073ffffffffffffffffffffffffffffffffffffffff16600073ffffffffffffffffffffffffffffffffffffffff167f8be0079c531659141344cd1fd0a4f28419497f9722a3daafe3b4186f6b6457e060405160405180910390a35080600560006101000a81548173ffffffffffffffffffffffffffffffffffffffff021916908373ffffffffffffffffffffffffffffffffffffffff16021790555061232860038190555050620001cd565b600033905090565b6000815190506200014d81620001b3565b92915050565b6000602082840312156200016657600080fd5b600062000176848285016200013c565b91505092915050565b60006200018c8262000193565b9050919050565b600073ffffffffffffffffffffffffffffffffffffffff82169050919050565b620001be816200017f565b8114620001ca57600080fd5b50565b61245b80620001dd6000396000f3fe6080604052600436106100f75760003560e01c8063aaf10f421161008a578063ddca3f4311610059578063ddca3f43146103ba578063ee7d72b4146103e5578063f2fde38b1461040e578063f68016b71461043757610156565b8063aaf10f4214610314578063b1242bde1461033f578063d784d42614610368578063d9caed121461039157610156565b80638220ef5b116100c65780638220ef5b14610244578063877536c61461026f5780638a6c4284146102ac5780638da5cb5b146102e957610156565b80630c0116ba146101b0578063203f03d8146101db57806352f7c9881461020457806379ba50971461022d57610156565b36610156576000341115610154573373ffffffffffffffffffffffffffffffffffffffff167f2da466a7b24304f47e87fa2e1e5a81b9831ce54fec19055ce277ca2f39ba42c43460405161014b9190611ff1565b60405180910390a25b005b60003411156101ae573373ffffffffffffffffffffffffffffffffffffffff167f2da466a7b24304f47e87fa2e1e5a81b9831ce54fec19055ce277ca2f39ba42c4346040516101a59190611ff1565b60405180910390a25b005b3480156101bc57600080fd5b506101c5610462565b6040516101d29190611ff1565b60405180910390f35b3480156101e757600080fd5b5061020260048036038101906101fd919061194c565b61046c565b005b34801561021057600080fd5b5061022b60048036038101906102269190611a8f565b610651565b005b34801561023957600080fd5b50610242610790565b005b34801561025057600080fd5b5061025961096e565b6040516102669190611e32565b60405180910390f35b34801561027b57600080fd5b50610296600480360381019061029191906119af565b6109fc565b6040516102a39190611db7565b60405180910390f35b3480156102b857600080fd5b506102d360048036038101906102ce9190611a14565b610ba8565b6040516102e09190611db7565b60405180910390f35b3480156102f557600080fd5b506102fe610bdd565b60405161030b9190611db7565b60405180910390f35b34801561032057600080fd5b50610329610c06565b6040516103369190611db7565b60405180910390f35b34801561034b57600080fd5b50610366600480360381019061036191906118fd565b610c30565b005b34801561037457600080fd5b5061038f600480360381019061038a91906118d4565b610e14565b005b34801561039d57600080fd5b506103b860048036038101906103b391906118fd565b610ed4565b005b3480156103c657600080fd5b506103cf61122a565b6040516103dc9190611ff1565b60405180910390f35b3480156103f157600080fd5b5061040c60048036038101906104079190611a3d565b611234565b005b34801561041a57600080fd5b50610435600480360381019061043091906118d4565b6112ba565b005b34801561044357600080fd5b5061044c6113ea565b6040516104599190611ff1565b60405180910390f35b6000600454905090565b6104746113f4565b73ffffffffffffffffffffffffffffffffffffffff16610492610bdd565b73ffffffffffffffffffffffffffffffffffffffff16146104e8576040517f08c379a00000000000000000000000000000000000000000000000000000000081526004016104df90611f11565b60405180910390fd5b600073ffffffffffffffffffffffffffffffffffffffff168373ffffffffffffffffffffffffffffffffffffffff161415610558576040517f08c379a000000000000000000000000000000000000000000000000000000000815260040161054f90611fb1565b60405180910390fd5b8373ffffffffffffffffffffffffffffffffffffffff166323b872dd3085856040518463ffffffff1660e01b815260040161059593929190611dd2565b600060405180830381600087803b1580156105af57600080fd5b505af11580156105c3573d6000803e3d6000fd5b505050508373ffffffffffffffffffffffffffffffffffffffff168373ffffffffffffffffffffffffffffffffffffffff166105fd6113f4565b73ffffffffffffffffffffffffffffffffffffffff167fa4195c37c2947bbe89165f03e320b6903116f0b10d8cfdb522330f7ce6f9fa2460016040516106439190611e54565b60405180910390a450505050565b6106596113f4565b73ffffffffffffffffffffffffffffffffffffffff16610677610bdd565b73ffffffffffffffffffffffffffffffffffffffff16146106cd576040517f08c379a00000000000000000000000000000000000000000000000000000000081526004016106c490611f11565b60405180910390fd5b80821015610710576040517f08c379a000000000000000000000000000000000000000000000000000000000815260040161070790611f91565b60405180910390fd5b81600281905550806004819055507f8c4d35e54a3f2ef1134138fd8ea3daee6a3c89e10d2665996babdf70261e2c768260405161074d9190611ff1565b60405180910390a17fc9f67e7ce54e61db019ebed69ec7d0b28f85d963f8dcb9539c65fc5a2d432919816040516107849190611ff1565b60405180910390a15050565b600160009054906101000a900473ffffffffffffffffffffffffffffffffffffffff1673ffffffffffffffffffffffffffffffffffffffff166107d16113f4565b73ffffffffffffffffffffffffffffffffffffffff1614610827576040517f08c379a000000000000000000000000000000000000000000000000000000000815260040161081e90611fd1565b60405180910390fd5b60008060009054906101000a900473ffffffffffffffffffffffffffffffffffffffff169050600160009054906101000a900473ffffffffffffffffffffffffffffffffffffffff166000806101000a81548173ffffffffffffffffffffffffffffffffffffffff021916908373ffffffffffffffffffffffffffffffffffffffff1602179055506000600160006101000a81548173ffffffffffffffffffffffffffffffffffffffff021916908373ffffffffffffffffffffffffffffffffffffffff16021790555060008054906101000a900473ffffffffffffffffffffffffffffffffffffffff1673ffffffffffffffffffffffffffffffffffffffff168173ffffffffffffffffffffffffffffffffffffffff167f8be0079c531659141344cd1fd0a4f28419497f9722a3daafe3b4186f6b6457e060405160405180910390a350565b606060068054806020026020016040519081016040528092919081815260200182805480156109f257602002820191906000526020600020905b8160009054906101000a900473ffffffffffffffffffffffffffffffffffffffff1673ffffffffffffffffffffffffffffffffffffffff16815260200190600101908083116109a8575b5050505050905090565b600080610a2b600560009054906101000a900473ffffffffffffffffffffffffffffffffffffffff16846113fc565b90508073ffffffffffffffffffffffffffffffffffffffff1663e1c7392a6040518163ffffffff1660e01b8152600401600060405180830381600087803b158015610a7557600080fd5b505af1158015610a89573d6000803e3d6000fd5b505050508073ffffffffffffffffffffffffffffffffffffffff1663f2fde38b856040518263ffffffff1660e01b8152600401610ac69190611db7565b600060405180830381600087803b158015610ae057600080fd5b505af1158015610af4573d6000803e3d6000fd5b505050506006819080600181540180825580915050600190039060005260206000200160009091909190916101000a81548173ffffffffffffffffffffffffffffffffffffffff021916908373ffffffffffffffffffffffffffffffffffffffff1602179055508073ffffffffffffffffffffffffffffffffffffffff167f1449abf21e49fd025f33495e77f7b1461caefdd3d4bb646424a3f445c4576a5b60405160405180910390a28091505092915050565b6000610bd6600560009054906101000a900473ffffffffffffffffffffffffffffffffffffffff16836114d3565b9050919050565b60008060009054906101000a900473ffffffffffffffffffffffffffffffffffffffff16905090565b6000600560009054906101000a900473ffffffffffffffffffffffffffffffffffffffff16905090565b610c386113f4565b73ffffffffffffffffffffffffffffffffffffffff16610c56610bdd565b73ffffffffffffffffffffffffffffffffffffffff1614610cac576040517f08c379a0000000000000000000000000000000000000000000000000000000008152600401610ca390611f11565b60405180910390fd5b600073ffffffffffffffffffffffffffffffffffffffff168273ffffffffffffffffffffffffffffffffffffffff161415610d1c576040517f08c379a0000000000000000000000000000000000000000000000000000000008152600401610d1390611fb1565b60405180910390fd5b8273ffffffffffffffffffffffffffffffffffffffff166323b872dd3084846040518463ffffffff1660e01b8152600401610d5993929190611dd2565b600060405180830381600087803b158015610d7357600080fd5b505af1158015610d87573d6000803e3d6000fd5b505050508273ffffffffffffffffffffffffffffffffffffffff168273ffffffffffffffffffffffffffffffffffffffff16610dc16113f4565b73ffffffffffffffffffffffffffffffffffffffff167fa4195c37c2947bbe89165f03e320b6903116f0b10d8cfdb522330f7ce6f9fa246001604051610e079190611e54565b60405180910390a4505050565b610e1c6113f4565b73ffffffffffffffffffffffffffffffffffffffff16610e3a610bdd565b73ffffffffffffffffffffffffffffffffffffffff1614610e90576040517f08c379a0000000000000000000000000000000000000000000000000000000008152600401610e8790611f11565b60405180910390fd5b80600560006101000a81548173ffffffffffffffffffffffffffffffffffffffff021916908373ffffffffffffffffffffffffffffffffffffffff16021790555050565b610edc6113f4565b73ffffffffffffffffffffffffffffffffffffffff16610efa610bdd565b73ffffffffffffffffffffffffffffffffffffffff1614610f50576040517f08c379a0000000000000000000000000000000000000000000000000000000008152600401610f4790611f11565b60405180910390fd5b600073ffffffffffffffffffffffffffffffffffffffff168273ffffffffffffffffffffffffffffffffffffffff161415610fc0576040517f08c379a0000000000000000000000000000000000000000000000000000000008152600401610fb790611f31565b60405180910390fd5b60008073ffffffffffffffffffffffffffffffffffffffff168473ffffffffffffffffffffffffffffffffffffffff161415610ffe5747905061108a565b8373ffffffffffffffffffffffffffffffffffffffff166370a08231306040518263ffffffff1660e01b81526004016110379190611db7565b60206040518083038186803b15801561104f57600080fd5b505afa158015611063573d6000803e3d6000fd5b505050506040513d601f19601f820116820180604052508101906110879190611a66565b90505b808211156110cd576040517f08c379a00000000000000000000000000000000000000000000000000000000081526004016110c490611ef1565b60405180910390fd5b600073ffffffffffffffffffffffffffffffffffffffff168473ffffffffffffffffffffffffffffffffffffffff161415611175578273ffffffffffffffffffffffffffffffffffffffff16826003549060405161112a90611da2565b600060405180830381858888f193505050503d8060008114611168576040519150601f19603f3d011682016040523d82523d6000602084013e61116d565b606091505b5050506111a1565b6111a083838673ffffffffffffffffffffffffffffffffffffffff166114e89092919063ffffffff16565b5b8373ffffffffffffffffffffffffffffffffffffffff168373ffffffffffffffffffffffffffffffffffffffff166111d76113f4565b73ffffffffffffffffffffffffffffffffffffffff167fa4195c37c2947bbe89165f03e320b6903116f0b10d8cfdb522330f7ce6f9fa248560405161121c9190611ff1565b60405180910390a450505050565b6000600254905090565b61123c6113f4565b73ffffffffffffffffffffffffffffffffffffffff1661125a610bdd565b73ffffffffffffffffffffffffffffffffffffffff16146112b0576040517f08c379a00000000000000000000000000000000000000000000000000000000081526004016112a790611f11565b60405180910390fd5b8060038190555050565b6112c26113f4565b73ffffffffffffffffffffffffffffffffffffffff166112e0610bdd565b73ffffffffffffffffffffffffffffffffffffffff1614611336576040517f08c379a000000000000000000000000000000000000000000000000000000000815260040161132d90611f11565b60405180910390fd5b600073ffffffffffffffffffffffffffffffffffffffff168173ffffffffffffffffffffffffffffffffffffffff1614156113a6576040517f08c379a000000000000000000000000000000000000000000000000000000000815260040161139d90611e91565b60405180910390fd5b80600160006101000a81548173ffffffffffffffffffffffffffffffffffffffff021916908373ffffffffffffffffffffffffffffffffffffffff16021790555050565b6000600354905090565b600033905090565b60006040517f3d602d80600a3d3981f3363d3d373d3d3d363d7300000000000000000000000081528360601b60148201527f5af43d82803e903d91602b57fd5bf300000000000000000000000000000000006028820152826037826000f5915050600073ffffffffffffffffffffffffffffffffffffffff168173ffffffffffffffffffffffffffffffffffffffff1614156114cd576040517f08c379a00000000000000000000000000000000000000000000000000000000081526004016114c490611eb1565b60405180910390fd5b92915050565b60006114e083833061156e565b905092915050565b6115698363a9059cbb60e01b8484604051602401611507929190611e09565b604051602081830303815290604052907bffffffffffffffffffffffffffffffffffffffffffffffffffffffff19166020820180517bffffffffffffffffffffffffffffffffffffffffffffffffffffffff83818316178352505050506115ee565b505050565b60006040517f3d602d80600a3d3981f3363d3d373d3d3d363d7300000000000000000000000081528460601b60148201527f5af43d82803e903d91602b57fd5bf3ff0000000000000000000000000000000060288201528260601b603882015283604c82015260378120606c820152605560378201209150509392505050565b6000611650826040518060400160405280602081526020017f5361666545524332303a206c6f772d6c6576656c2063616c6c206661696c65648152508573ffffffffffffffffffffffffffffffffffffffff166116b59092919063ffffffff16565b90506000815111156116b0578080602001905181019061167091906119eb565b6116af576040517f08c379a00000000000000000000000000000000000000000000000000000000081526004016116a690611f71565b60405180910390fd5b5b505050565b60606116c484846000856116cd565b90509392505050565b606082471015611712576040517f08c379a000000000000000000000000000000000000000000000000000000000815260040161170990611ed1565b60405180910390fd5b61171b856117e1565b61175a576040517f08c379a000000000000000000000000000000000000000000000000000000000815260040161175190611f51565b60405180910390fd5b6000808673ffffffffffffffffffffffffffffffffffffffff1685876040516117839190611d8b565b60006040518083038185875af1925050503d80600081146117c0576040519150601f19603f3d011682016040523d82523d6000602084013e6117c5565b606091505b50915091506117d5828286611804565b92505050949350505050565b6000808273ffffffffffffffffffffffffffffffffffffffff163b119050919050565b6060831561181457829050611864565b6000835111156118275782518084602001fd5b816040517f08c379a000000000000000000000000000000000000000000000000000000000815260040161185b9190611e6f565b60405180910390fd5b9392505050565b60008135905061187a816123c9565b92915050565b60008151905061188f816123e0565b92915050565b6000813590506118a4816123f7565b92915050565b6000813590506118b98161240e565b92915050565b6000815190506118ce8161240e565b92915050565b6000602082840312156118e657600080fd5b60006118f48482850161186b565b91505092915050565b60008060006060848603121561191257600080fd5b60006119208682870161186b565b93505060206119318682870161186b565b9250506040611942868287016118aa565b9150509250925092565b6000806000806080858703121561196257600080fd5b60006119708782880161186b565b94505060206119818782880161186b565b9350506040611992878288016118aa565b92505060606119a3878288016118aa565b91505092959194509250565b600080604083850312156119c257600080fd5b60006119d08582860161186b565b92505060206119e185828601611895565b9150509250929050565b6000602082840312156119fd57600080fd5b6000611a0b84828501611880565b91505092915050565b600060208284031215611a2657600080fd5b6000611a3484828501611895565b91505092915050565b600060208284031215611a4f57600080fd5b6000611a5d848285016118aa565b91505092915050565b600060208284031215611a7857600080fd5b6000611a86848285016118bf565b91505092915050565b60008060408385031215611aa257600080fd5b6000611ab0858286016118aa565b9250506020611ac1858286016118aa565b9150509250929050565b6000611ad78383611ae3565b60208301905092915050565b611aec81612077565b82525050565b611afb81612077565b82525050565b6000611b0c8261201c565b611b16818561204a565b9350611b218361200c565b8060005b83811015611b52578151611b398882611acb565b9750611b448361203d565b925050600181019050611b25565b5085935050505092915050565b6000611b6a82612027565b611b74818561205b565b9350611b848185602086016120db565b80840191505092915050565b611b99816120c9565b82525050565b6000611baa82612032565b611bb48185612066565b9350611bc48185602086016120db565b611bcd8161210e565b840191505092915050565b6000611be5602683612066565b9150611bf08261211f565b604082019050919050565b6000611c08601783612066565b9150611c138261216e565b602082019050919050565b6000611c2b602683612066565b9150611c3682612197565b604082019050919050565b6000611c4e601c83612066565b9150611c59826121e6565b602082019050919050565b6000611c71602083612066565b9150611c7c8261220f565b602082019050919050565b6000611c9460008361205b565b9150611c9f82612238565b600082019050919050565b6000611cb7602583612066565b9150611cc28261223b565b604082019050919050565b6000611cda601d83612066565b9150611ce58261228a565b602082019050919050565b6000611cfd602a83612066565b9150611d08826122b3565b604082019050919050565b6000611d20601f83612066565b9150611d2b82612302565b602082019050919050565b6000611d43602583612066565b9150611d4e8261232b565b604082019050919050565b6000611d66602c83612066565b9150611d718261237a565b604082019050919050565b611d85816120bf565b82525050565b6000611d978284611b5f565b915081905092915050565b6000611dad82611c87565b9150819050919050565b6000602082019050611dcc6000830184611af2565b92915050565b6000606082019050611de76000830186611af2565b611df46020830185611af2565b611e016040830184611d7c565b949350505050565b6000604082019050611e1e6000830185611af2565b611e2b6020830184611d7c565b9392505050565b60006020820190508181036000830152611e4c8184611b01565b905092915050565b6000602082019050611e696000830184611b90565b92915050565b60006020820190508181036000830152611e898184611b9f565b905092915050565b60006020820190508181036000830152611eaa81611bd8565b9050919050565b60006020820190508181036000830152611eca81611bfb565b9050919050565b60006020820190508181036000830152611eea81611c1e565b9050919050565b60006020820190508181036000830152611f0a81611c41565b9050919050565b60006020820190508181036000830152611f2a81611c64565b9050919050565b60006020820190508181036000830152611f4a81611caa565b9050919050565b60006020820190508181036000830152611f6a81611ccd565b9050919050565b60006020820190508181036000830152611f8a81611cf0565b9050919050565b60006020820190508181036000830152611faa81611d13565b9050919050565b60006020820190508181036000830152611fca81611d36565b9050919050565b60006020820190508181036000830152611fea81611d59565b9050919050565b60006020820190506120066000830184611d7c565b92915050565b6000819050602082019050919050565b600081519050919050565b600081519050919050565b600081519050919050565b6000602082019050919050565b600082825260208201905092915050565b600081905092915050565b600082825260208201905092915050565b60006120828261209f565b9050919050565b60008115159050919050565b6000819050919050565b600073ffffffffffffffffffffffffffffffffffffffff82169050919050565b6000819050919050565b60006120d4826120bf565b9050919050565b60005b838110156120f95780820151818401526020810190506120de565b83811115612108576000848401525b50505050565b6000601f19601f8301169050919050565b7f4f776e61626c653a206e6577206f776e657220697320746865207a65726f206160008201527f6464726573730000000000000000000000000000000000000000000000000000602082015250565b7f455243313136373a2063726561746532206661696c6564000000000000000000600082015250565b7f416464726573733a20696e73756666696369656e742062616c616e636520666f60008201527f722063616c6c0000000000000000000000000000000000000000000000000000602082015250565b7f4339385661756c743a204e6f7420656e6f7567682062616c616e636500000000600082015250565b7f4f776e61626c653a2063616c6c6572206973206e6f7420746865206f776e6572600082015250565b50565b7f4339385661756c743a2044657374696e6174696f6e206973207a65726f20616460008201527f6472657373000000000000000000000000000000000000000000000000000000602082015250565b7f416464726573733a2063616c6c20746f206e6f6e2d636f6e7472616374000000600082015250565b7f5361666545524332303a204552433230206f7065726174696f6e20646964206e60008201527f6f74207375636365656400000000000000000000000000000000000000000000602082015250565b7f4339385661756c743a20496e76616c69642072657761726420616d6f756e7400600082015250565b7f4339385661756c743a2064657374696e6174696f6e206973207a65726f20616460008201527f6472657373000000000000000000000000000000000000000000000000000000602082015250565b7f4f776e61626c653a206f6e6c79206e6577206f776e65722063616e206163636560008201527f7074206f776e6572736869700000000000000000000000000000000000000000602082015250565b6123d281612077565b81146123dd57600080fd5b50565b6123e981612089565b81146123f457600080fd5b50565b61240081612095565b811461240b57600080fd5b50565b612417816120bf565b811461242257600080fd5b5056fea26469706673582212208f8a11c83b74dd629d8ccde6edf08d3c8531c45361bc980265d7d0441721c19264736f6c63430008010033",
  "linkReferences": {},
  "deployedLinkReferences": {}
}