{
  "_format": "hh-sol-artifact-1",
  "contractName": "ERC20Token",
  "sourceName": "contracts/erc20.sol",
  "abi": [
    {
      "inputs": [],
      "stateMutability": "nonpayable",
      "type": "constructor"
    },
    {
      "anonymous": false,
      "inputs": [
        {
          "indexed": true,
          "internalType": "address",
          "name": "owner",
          "type": "address"
        },
        {
          "indexed": true,
          "internalType": "address",
          "name": "spender",
          "type": "address"
        },
        {
          "indexed": false,
          "internalType": "uint256",
          "name": "value",
          "type": "uint256"
        }
      ],
      "name": "Approval",
      "type": "event"
    },
    {
      "anonymous": false,
      "inputs": [
        {
          "indexed": true,
          "internalType": "address",
          "name": "previousOwner",
          "type": "address"
        },
        {
          "indexed": true,
          "internalType": "address",
          "name": "newOwner",
          "type": "address"
        }
      ],
      "name": "OwnershipTransferred",
      "type": "event"
    },
    {
      "anonymous": false,
      "inputs": [
        {
          "indexed": true,
          "internalType": "address",
          "name": "from",
          "type": "address"
        },
        {
          "indexed": true,
          "internalType": "address",
          "name": "to",
          "type": "address"
        },
        {
          "indexed": false,
          "internalType": "uint256",
          "name": "value",
          "type": "uint256"
        }
      ],
      "name": "Transfer",
      "type": "event"
    },
    {
      "inputs": [
        {
          "internalType": "address",
          "name": "minter",
          "type": "address"
        }
      ],
      "name": "addMinter",
      "outputs": [],
      "stateMutability": "nonpayable",
      "type": "function"
    },
    {
      "inputs": [
        {
          "internalType": "address",
          "name": "owner",
          "type": "address"
        },
        {
          "internalType": "address",
          "name": "spender",
          "type": "address"
        }
      ],
      "name": "allowance",
      "outputs": [
        {
          "internalType": "uint256",
          "name": "",
          "type": "uint256"
        }
      ],
      "stateMutability": "view",
      "type": "function"
    },
    {
      "inputs": [
        {
          "internalType": "address",
          "name": "spender",
          "type": "address"
        },
        {
          "internalType": "uint256",
          "name": "amount",
          "type": "uint256"
        }
      ],
      "name": "approve",
      "outputs": [
        {
          "internalType": "bool",
          "name": "",
          "type": "bool"
        }
      ],
      "stateMutability": "nonpayable",
      "type": "function"
    },
    {
      "inputs": [
        {
          "internalType": "address",
          "name": "account",
          "type": "address"
        }
      ],
      "name": "balanceOf",
      "outputs": [
        {
          "internalType": "uint256",
          "name": "",
          "type": "uint256"
        }
      ],
      "stateMutability": "view",
      "type": "function"
    },
    {
      "inputs": [],
      "name": "decimals",
      "outputs": [
        {
          "internalType": "uint8",
          "name": "",
          "type": "uint8"
        }
      ],
      "stateMutability": "view",
      "type": "function"
    },
    {
      "inputs": [
        {
          "internalType": "address",
          "name": "spender",
          "type": "address"
        },
        {
          "internalType": "uint256",
          "name": "subtractedValue",
          "type": "uint256"
        }
      ],
      "name": "decreaseAllowance",
      "outputs": [
        {
          "internalType": "bool",
          "name": "",
          "type": "bool"
        }
      ],
      "stateMutability": "nonpayable",
      "type": "function"
    },
    {
      "inputs": [
        {
          "internalType": "address",
          "name": "spender",
          "type": "address"
        },
        {
          "internalType": "uint256",
          "name": "addedValue",
          "type": "uint256"
        }
      ],
      "name": "increaseAllowance",
      "outputs": [
        {
          "internalType": "bool",
          "name": "",
          "type": "bool"
        }
      ],
      "stateMutability": "nonpayable",
      "type": "function"
    },
    {
      "inputs": [
        {
          "internalType": "address",
          "name": "",
          "type": "address"
        }
      ],
      "name": "isMinter",
      "outputs": [
        {
          "internalType": "bool",
          "name": "",
          "type": "bool"
        }
      ],
      "stateMutability": "view",
      "type": "function"
    },
    {
      "inputs": [
        {
          "internalType": "address",
          "name": "to",
          "type": "address"
        },
        {
          "internalType": "uint256",
          "name": "amount",
          "type": "uint256"
        }
      ],
      "name": "mint",
      "outputs": [],
      "stateMutability": "nonpayable",
      "type": "function"
    },
    {
      "inputs": [],
      "name": "name",
      "outputs": [
        {
          "internalType": "string",
          "name": "",
          "type": "string"
        }
      ],
      "stateMutability": "view",
      "type": "function"
    },
    {
      "inputs": [],
      "name": "owner",
      "outputs": [
        {
          "internalType": "address",
          "name": "",
          "type": "address"
        }
      ],
      "stateMutability": "view",
      "type": "function"
    },
    {
      "inputs": [
        {
          "internalType": "address",
          "name": "minter",
          "type": "address"
        }
      ],
      "name": "removeMinter",
      "outputs": [],
      "stateMutability": "nonpayable",
      "type": "function"
    },
    {
      "inputs": [],
      "name": "renounceOwnership",
      "outputs": [],
      "stateMutability": "nonpayable",
      "type": "function"
    },
    {
      "inputs": [],
      "name": "symbol",
      "outputs": [
        {
          "internalType": "string",
          "name": "",
          "type": "string"
        }
      ],
      "stateMutability": "view",
      "type": "function"
    },
    {
      "inputs": [],
      "name": "totalSupply",
      "outputs": [
        {
          "internalType": "uint256",
          "name": "",
          "type": "uint256"
        }
      ],
      "stateMutability": "view",
      "type": "function"
    },
    {
      "inputs": [
        {
          "internalType": "address",
          "name": "to",
          "type": "address"
        },
        {
          "internalType": "uint256",
          "name": "amount",
          "type": "uint256"
        }
      ],
      "name": "transfer",
      "outputs": [
        {
          "internalType": "bool",
          "name": "",
          "type": "bool"
        }
      ],
      "stateMutability": "nonpayable",
      "type": "function"
    },
    {
      "inputs": [
        {
          "internalType": "address",
          "name": "from",
          "type": "address"
        },
        {
          "internalType": "address",
          "name": "to",
          "type": "address"
        },
        {
          "internalType": "uint256",
          "name": "amount",
          "type": "uint256"
        }
      ],
      "name": "transferFrom",
      "outputs": [
        {
          "internalType": "bool",
          "name": "",
          "type": "bool"
        }
      ],
      "stateMutability": "nonpayable",
      "type": "function"
    },
    {
      "inputs": [
        {
          "internalType": "address",
          "name": "newOwner",
          "type": "address"
        }
      ],
      "name": "transferOwnership",
      "outputs": [],
      "stateMutability": "nonpayable",
      "type": "function"
    }
  ],
  "bytecode": "0x60806040523480156200001157600080fd5b506040518060400160405280601181526020017f54657374546f6b656e4d696e7461626c650000000000000000000000000000008152506040518060400160405280600381526020017f54544d0000000000000000000000000000000000000000000000000000000000815250816003908051906020019062000096929190620001a6565b508060049080519060200190620000af929190620001a6565b505050620000d2620000c6620000d860201b60201c565b620000e060201b60201c565b620002bb565b600033905090565b6000600560009054906101000a900473ffffffffffffffffffffffffffffffffffffffff16905081600560006101000a81548173ffffffffffffffffffffffffffffffffffffffff021916908373ffffffffffffffffffffffffffffffffffffffff1602179055508173ffffffffffffffffffffffffffffffffffffffff168173ffffffffffffffffffffffffffffffffffffffff167f8be0079c531659141344cd1fd0a4f28419497f9722a3daafe3b4186f6b6457e060405160405180910390a35050565b828054620001b49062000256565b90600052602060002090601f016020900481019282620001d8576000855562000224565b82601f10620001f357805160ff191683800117855562000224565b8280016001018555821562000224579182015b828111156200022357825182559160200191906001019062000206565b5b50905062000233919062000237565b5090565b5b808211156200025257600081600090555060010162000238565b5090565b600060028204905060018216806200026f57607f821691505b602082108114156200028657620002856200028c565b5b50919050565b7f4e487b7100000000000000000000000000000000000000000000000000000000600052602260045260246000fd5b611a6e80620002cb6000396000f3fe608060405234801561001057600080fd5b50600436106101165760003560e01c8063715018a6116100a2578063a457c2d711610071578063a457c2d7146102cf578063a9059cbb146102ff578063aa271e1a1461032f578063dd62ed3e1461035f578063f2fde38b1461038f57610116565b8063715018a61461026d5780638da5cb5b1461027757806395d89b4114610295578063983b2d56146102b357610116565b80633092afd5116100e95780633092afd5146101b7578063313ce567146101d357806339509351146101f157806340c10f191461022157806370a082311461023d57610116565b806306fdde031461011b578063095ea7b31461013957806318160ddd1461016957806323b872dd14610187575b600080fd5b6101236103ab565b60405161013091906113ea565b60405180910390f35b610153600480360381019061014e9190611182565b61043d565b60405161016091906113cf565b60405180910390f35b610171610460565b60405161017e919061156c565b60405180910390f35b6101a1600480360381019061019c9190611133565b61046a565b6040516101ae91906113cf565b60405180910390f35b6101d160048036038101906101cc91906110ce565b610499565b005b6101db6104fc565b6040516101e89190611587565b60405180910390f35b61020b60048036038101906102069190611182565b610505565b60405161021891906113cf565b60405180910390f35b61023b60048036038101906102369190611182565b61053c565b005b610257600480360381019061025291906110ce565b6105d6565b604051610264919061156c565b60405180910390f35b61027561061e565b005b61027f610632565b60405161028c91906113b4565b60405180910390f35b61029d61065c565b6040516102aa91906113ea565b60405180910390f35b6102cd60048036038101906102c891906110ce565b6106ee565b005b6102e960048036038101906102e49190611182565b610751565b6040516102f691906113cf565b60405180910390f35b61031960048036038101906103149190611182565b6107c8565b60405161032691906113cf565b60405180910390f35b610349600480360381019061034491906110ce565b6107eb565b60405161035691906113cf565b60405180910390f35b610379600480360381019061037491906110f7565b61080b565b604051610386919061156c565b60405180910390f35b6103a960048036038101906103a491906110ce565b610892565b005b6060600380546103ba9061169c565b80601f01602080910402602001604051908101604052809291908181526020018280546103e69061169c565b80156104335780601f1061040857610100808354040283529160200191610433565b820191906000526020600020905b81548152906001019060200180831161041657829003601f168201915b5050505050905090565b600080610448610916565b905061045581858561091e565b600191505092915050565b6000600254905090565b600080610475610916565b9050610482858285610ae9565b61048d858585610b75565b60019150509392505050565b6104a1610df6565b6000600660008373ffffffffffffffffffffffffffffffffffffffff1673ffffffffffffffffffffffffffffffffffffffff16815260200190815260200160002060006101000a81548160ff02191690831515021790555050565b60006012905090565b600080610510610916565b9050610531818585610522858961080b565b61052c91906115be565b61091e565b600191505092915050565b600660003373ffffffffffffffffffffffffffffffffffffffff1673ffffffffffffffffffffffffffffffffffffffff16815260200190815260200160002060009054906101000a900460ff166105c8576040517f08c379a00000000000000000000000000000000000000000000000000000000081526004016105bf9061150c565b60405180910390fd5b6105d28282610e74565b5050565b60008060008373ffffffffffffffffffffffffffffffffffffffff1673ffffffffffffffffffffffffffffffffffffffff168152602001908152602001600020549050919050565b610626610df6565b6106306000610fd4565b565b6000600560009054906101000a900473ffffffffffffffffffffffffffffffffffffffff16905090565b60606004805461066b9061169c565b80601f01602080910402602001604051908101604052809291908181526020018280546106979061169c565b80156106e45780601f106106b9576101008083540402835291602001916106e4565b820191906000526020600020905b8154815290600101906020018083116106c757829003601f168201915b5050505050905090565b6106f6610df6565b6001600660008373ffffffffffffffffffffffffffffffffffffffff1673ffffffffffffffffffffffffffffffffffffffff16815260200190815260200160002060006101000a81548160ff02191690831515021790555050565b60008061075c610916565b9050600061076a828661080b565b9050838110156107af576040517f08c379a00000000000000000000000000000000000000000000000000000000081526004016107a69061152c565b60405180910390fd5b6107bc828686840361091e565b60019250505092915050565b6000806107d3610916565b90506107e0818585610b75565b600191505092915050565b60066020528060005260406000206000915054906101000a900460ff1681565b6000600160008473ffffffffffffffffffffffffffffffffffffffff1673ffffffffffffffffffffffffffffffffffffffff16815260200190815260200160002060008373ffffffffffffffffffffffffffffffffffffffff1673ffffffffffffffffffffffffffffffffffffffff16815260200190815260200160002054905092915050565b61089a610df6565b600073ffffffffffffffffffffffffffffffffffffffff168173ffffffffffffffffffffffffffffffffffffffff16141561090a576040517f08c379a00000000000000000000000000000000000000000000000000000000081526004016109019061142c565b60405180910390fd5b61091381610fd4565b50565b600033905090565b600073ffffffffffffffffffffffffffffffffffffffff168373ffffffffffffffffffffffffffffffffffffffff16141561098e576040517f08c379a0000000000000000000000000000000000000000000000000000000008152600401610985906114ec565b60405180910390fd5b600073ffffffffffffffffffffffffffffffffffffffff168273ffffffffffffffffffffffffffffffffffffffff1614156109fe576040517f08c379a00000000000000000000000000000000000000000000000000000000081526004016109f59061144c565b60405180910390fd5b80600160008573ffffffffffffffffffffffffffffffffffffffff1673ffffffffffffffffffffffffffffffffffffffff16815260200190815260200160002060008473ffffffffffffffffffffffffffffffffffffffff1673ffffffffffffffffffffffffffffffffffffffff168152602001908152602001600020819055508173ffffffffffffffffffffffffffffffffffffffff168373ffffffffffffffffffffffffffffffffffffffff167f8c5be1e5ebec7d5bd14f71427d1e84f3dd0314c0f7b2291e5b200ac8c7c3b92583604051610adc919061156c565b60405180910390a3505050565b6000610af5848461080b565b90507fffffffffffffffffffffffffffffffffffffffffffffffffffffffffffffffff8114610b6f5781811015610b61576040517f08c379a0000000000000000000000000000000000000000000000000000000008152600401610b589061146c565b60405180910390fd5b610b6e848484840361091e565b5b50505050565b600073ffffffffffffffffffffffffffffffffffffffff168373ffffffffffffffffffffffffffffffffffffffff161415610be5576040517f08c379a0000000000000000000000000000000000000000000000000000000008152600401610bdc906114cc565b60405180910390fd5b600073ffffffffffffffffffffffffffffffffffffffff168273ffffffffffffffffffffffffffffffffffffffff161415610c55576040517f08c379a0000000000000000000000000000000000000000000000000000000008152600401610c4c9061140c565b60405180910390fd5b610c6083838361109a565b60008060008573ffffffffffffffffffffffffffffffffffffffff1673ffffffffffffffffffffffffffffffffffffffff16815260200190815260200160002054905081811015610ce6576040517f08c379a0000000000000000000000000000000000000000000000000000000008152600401610cdd9061148c565b60405180910390fd5b8181036000808673ffffffffffffffffffffffffffffffffffffffff1673ffffffffffffffffffffffffffffffffffffffff16815260200190815260200160002081905550816000808573ffffffffffffffffffffffffffffffffffffffff1673ffffffffffffffffffffffffffffffffffffffff1681526020019081526020016000206000828254610d7991906115be565b925050819055508273ffffffffffffffffffffffffffffffffffffffff168473ffffffffffffffffffffffffffffffffffffffff167fddf252ad1be2c89b69c2b068fc378daa952ba7f163c4a11628f55a4df523b3ef84604051610ddd919061156c565b60405180910390a3610df084848461109f565b50505050565b610dfe610916565b73ffffffffffffffffffffffffffffffffffffffff16610e1c610632565b73ffffffffffffffffffffffffffffffffffffffff1614610e72576040517f08c379a0000000000000000000000000000000000000000000000000000000008152600401610e69906114ac565b60405180910390fd5b565b600073ffffffffffffffffffffffffffffffffffffffff168273ffffffffffffffffffffffffffffffffffffffff161415610ee4576040517f08c379a0000000000000000000000000000000000000000000000000000000008152600401610edb9061154c565b60405180910390fd5b610ef06000838361109a565b8060026000828254610f0291906115be565b92505081905550806000808473ffffffffffffffffffffffffffffffffffffffff1673ffffffffffffffffffffffffffffffffffffffff1681526020019081526020016000206000828254610f5791906115be565b925050819055508173ffffffffffffffffffffffffffffffffffffffff16600073ffffffffffffffffffffffffffffffffffffffff167fddf252ad1be2c89b69c2b068fc378daa952ba7f163c4a11628f55a4df523b3ef83604051610fbc919061156c565b60405180910390a3610fd06000838361109f565b5050565b6000600560009054906101000a900473ffffffffffffffffffffffffffffffffffffffff16905081600560006101000a81548173ffffffffffffffffffffffffffffffffffffffff021916908373ffffffffffffffffffffffffffffffffffffffff1602179055508173ffffffffffffffffffffffffffffffffffffffff168173ffffffffffffffffffffffffffffffffffffffff167f8be0079c531659141344cd1fd0a4f28419497f9722a3daafe3b4186f6b6457e060405160405180910390a35050565b505050565b505050565b6000813590506110b381611a0a565b92915050565b6000813590506110c881611a21565b92915050565b6000602082840312156110e057600080fd5b60006110ee848285016110a4565b91505092915050565b6000806040838503121561110a57600080fd5b6000611118858286016110a4565b9250506020611129858286016110a4565b9150509250929050565b60008060006060848603121561114857600080fd5b6000611156868287016110a4565b9350506020611167868287016110a4565b9250506040611178868287016110b9565b9150509250925092565b6000806040838503121561119557600080fd5b60006111a3858286016110a4565b92505060206111b4858286016110b9565b9150509250929050565b6111c781611614565b82525050565b6111d681611626565b82525050565b60006111e7826115a2565b6111f181856115ad565b9350611201818560208601611669565b61120a8161172c565b840191505092915050565b60006112226023836115ad565b915061122d8261173d565b604082019050919050565b60006112456026836115ad565b91506112508261178c565b604082019050919050565b60006112686022836115ad565b9150611273826117db565b604082019050919050565b600061128b601d836115ad565b91506112968261182a565b602082019050919050565b60006112ae6026836115ad565b91506112b982611853565b604082019050919050565b60006112d16020836115ad565b91506112dc826118a2565b602082019050919050565b60006112f46025836115ad565b91506112ff826118cb565b604082019050919050565b60006113176024836115ad565b91506113228261191a565b604082019050919050565b600061133a6019836115ad565b915061134582611969565b602082019050919050565b600061135d6025836115ad565b915061136882611992565b604082019050919050565b6000611380601f836115ad565b915061138b826119e1565b602082019050919050565b61139f81611652565b82525050565b6113ae8161165c565b82525050565b60006020820190506113c960008301846111be565b92915050565b60006020820190506113e460008301846111cd565b92915050565b6000602082019050818103600083015261140481846111dc565b905092915050565b6000602082019050818103600083015261142581611215565b9050919050565b6000602082019050818103600083015261144581611238565b9050919050565b600060208201905081810360008301526114658161125b565b9050919050565b600060208201905081810360008301526114858161127e565b9050919050565b600060208201905081810360008301526114a5816112a1565b9050919050565b600060208201905081810360008301526114c5816112c4565b9050919050565b600060208201905081810360008301526114e5816112e7565b9050919050565b600060208201905081810360008301526115058161130a565b9050919050565b600060208201905081810360008301526115258161132d565b9050919050565b6000602082019050818103600083015261154581611350565b9050919050565b6000602082019050818103600083015261156581611373565b9050919050565b60006020820190506115816000830184611396565b92915050565b600060208201905061159c60008301846113a5565b92915050565b600081519050919050565b600082825260208201905092915050565b60006115c982611652565b91506115d483611652565b9250827fffffffffffffffffffffffffffffffffffffffffffffffffffffffffffffffff03821115611609576116086116ce565b5b828201905092915050565b600061161f82611632565b9050919050565b60008115159050919050565b600073ffffffffffffffffffffffffffffffffffffffff82169050919050565b6000819050919050565b600060ff82169050919050565b60005b8381101561168757808201518184015260208101905061166c565b83811115611696576000848401525b50505050565b600060028204905060018216806116b457607f821691505b602082108114156116c8576116c76116fd565b5b50919050565b7f4e487b7100000000000000000000000000000000000000000000000000000000600052601160045260246000fd5b7f4e487b7100000000000000000000000000000000000000000000000000000000600052602260045260246000fd5b6000601f19601f8301169050919050565b7f45524332303a207472616e7366657220746f20746865207a65726f206164647260008201527f6573730000000000000000000000000000000000000000000000000000000000602082015250565b7f4f776e61626c653a206e6577206f776e657220697320746865207a65726f206160008201527f6464726573730000000000000000000000000000000000000000000000000000602082015250565b7f45524332303a20617070726f766520746f20746865207a65726f20616464726560008201527f7373000000000000000000000000000000000000000000000000000000000000602082015250565b7f45524332303a20696e73756666696369656e7420616c6c6f77616e6365000000600082015250565b7f45524332303a207472616e7366657220616d6f756e742065786365656473206260008201527f616c616e63650000000000000000000000000000000000000000000000000000602082015250565b7f4f776e61626c653a2063616c6c6572206973206e6f7420746865206f776e6572600082015250565b7f45524332303a207472616e736665722066726f6d20746865207a65726f20616460008201527f6472657373000000000000000000000000000000000000000000000000000000602082015250565b7f45524332303a20617070726f76652066726f6d20746865207a65726f2061646460008201527f7265737300000000000000000000000000000000000000000000000000000000602082015250565b7f444f45535f4e4f545f484156455f4d494e5445525f524f4c4500000000000000600082015250565b7f45524332303a2064656372656173656420616c6c6f77616e63652062656c6f7760008201527f207a65726f000000000000000000000000000000000000000000000000000000602082015250565b7f45524332303a206d696e7420746f20746865207a65726f206164647265737300600082015250565b611a1381611614565b8114611a1e57600080fd5b50565b611a2a81611652565b8114611a3557600080fd5b5056fea26469706673582212207cba848a652c4d46785979595ef194e00269d40d2962d1f6ff03648430517d8f64736f6c63430008010033",
  "linkReferences": {},
  "deployedLinkReferences": {}
}