{
  "_format": "hh-sol-artifact-1",
  "contractName": "NFT721",
  "sourceName": "contracts/erc721.sol",
  "abi": [
    {
      "inputs": [],
      "stateMutability": "nonpayable",
      "type": "constructor"
    },
    {
      "anonymous": false,
      "inputs": [
        {
          "indexed": true,
          "internalType": "address",
          "name": "owner",
          "type": "address"
        },
        {
          "indexed": true,
          "internalType": "address",
          "name": "approved",
          "type": "address"
        },
        {
          "indexed": true,
          "internalType": "uint256",
          "name": "tokenId",
          "type": "uint256"
        }
      ],
      "name": "Approval",
      "type": "event"
    },
    {
      "anonymous": false,
      "inputs": [
        {
          "indexed": true,
          "internalType": "address",
          "name": "owner",
          "type": "address"
        },
        {
          "indexed": true,
          "internalType": "address",
          "name": "operator",
          "type": "address"
        },
        {
          "indexed": false,
          "internalType": "bool",
          "name": "approved",
          "type": "bool"
        }
      ],
      "name": "ApprovalForAll",
      "type": "event"
    },
    {
      "anonymous": false,
      "inputs": [
        {
          "indexed": true,
          "internalType": "address",
          "name": "previousOwner",
          "type": "address"
        },
        {
          "indexed": true,
          "internalType": "address",
          "name": "newOwner",
          "type": "address"
        }
      ],
      "name": "OwnershipTransferred",
      "type": "event"
    },
    {
      "anonymous": false,
      "inputs": [
        {
          "indexed": true,
          "internalType": "address",
          "name": "from",
          "type": "address"
        },
        {
          "indexed": true,
          "internalType": "address",
          "name": "to",
          "type": "address"
        },
        {
          "indexed": true,
          "internalType": "uint256",
          "name": "tokenId",
          "type": "uint256"
        }
      ],
      "name": "Transfer",
      "type": "event"
    },
    {
      "inputs": [
        {
          "internalType": "address",
          "name": "to",
          "type": "address"
        },
        {
          "internalType": "uint256",
          "name": "tokenId",
          "type": "uint256"
        }
      ],
      "name": "approve",
      "outputs": [],
      "stateMutability": "nonpayable",
      "type": "function"
    },
    {
      "inputs": [
        {
          "internalType": "address",
          "name": "owner",
          "type": "address"
        }
      ],
      "name": "balanceOf",
      "outputs": [
        {
          "internalType": "uint256",
          "name": "",
          "type": "uint256"
        }
      ],
      "stateMutability": "view",
      "type": "function"
    },
    {
      "inputs": [
        {
          "internalType": "uint256",
          "name": "tokenId",
          "type": "uint256"
        }
      ],
      "name": "getApproved",
      "outputs": [
        {
          "internalType": "address",
          "name": "",
          "type": "address"
        }
      ],
      "stateMutability": "view",
      "type": "function"
    },
    {
      "inputs": [
        {
          "internalType": "address",
          "name": "owner",
          "type": "address"
        },
        {
          "internalType": "address",
          "name": "operator",
          "type": "address"
        }
      ],
      "name": "isApprovedForAll",
      "outputs": [
        {
          "internalType": "bool",
          "name": "",
          "type": "bool"
        }
      ],
      "stateMutability": "view",
      "type": "function"
    },
    {
      "inputs": [
        {
          "internalType": "address",
          "name": "account",
          "type": "address"
        },
        {
          "internalType": "uint256",
          "name": "id",
          "type": "uint256"
        }
      ],
      "name": "mint",
      "outputs": [],
      "stateMutability": "nonpayable",
      "type": "function"
    },
    {
      "inputs": [],
      "name": "name",
      "outputs": [
        {
          "internalType": "string",
          "name": "",
          "type": "string"
        }
      ],
      "stateMutability": "view",
      "type": "function"
    },
    {
      "inputs": [],
      "name": "owner",
      "outputs": [
        {
          "internalType": "address",
          "name": "",
          "type": "address"
        }
      ],
      "stateMutability": "view",
      "type": "function"
    },
    {
      "inputs": [
        {
          "internalType": "uint256",
          "name": "tokenId",
          "type": "uint256"
        }
      ],
      "name": "ownerOf",
      "outputs": [
        {
          "internalType": "address",
          "name": "",
          "type": "address"
        }
      ],
      "stateMutability": "view",
      "type": "function"
    },
    {
      "inputs": [],
      "name": "renounceOwnership",
      "outputs": [],
      "stateMutability": "nonpayable",
      "type": "function"
    },
    {
      "inputs": [
        {
          "internalType": "address",
          "name": "from",
          "type": "address"
        },
        {
          "internalType": "address",
          "name": "to",
          "type": "address"
        },
        {
          "internalType": "uint256",
          "name": "tokenId",
          "type": "uint256"
        }
      ],
      "name": "safeTransferFrom",
      "outputs": [],
      "stateMutability": "nonpayable",
      "type": "function"
    },
    {
      "inputs": [
        {
          "internalType": "address",
          "name": "from",
          "type": "address"
        },
        {
          "internalType": "address",
          "name": "to",
          "type": "address"
        },
        {
          "internalType": "uint256",
          "name": "tokenId",
          "type": "uint256"
        },
        {
          "internalType": "bytes",
          "name": "data",
          "type": "bytes"
        }
      ],
      "name": "safeTransferFrom",
      "outputs": [],
      "stateMutability": "nonpayable",
      "type": "function"
    },
    {
      "inputs": [
        {
          "internalType": "address",
          "name": "operator",
          "type": "address"
        },
        {
          "internalType": "bool",
          "name": "approved",
          "type": "bool"
        }
      ],
      "name": "setApprovalForAll",
      "outputs": [],
      "stateMutability": "nonpayable",
      "type": "function"
    },
    {
      "inputs": [
        {
          "internalType": "bytes4",
          "name": "interfaceId",
          "type": "bytes4"
        }
      ],
      "name": "supportsInterface",
      "outputs": [
        {
          "internalType": "bool",
          "name": "",
          "type": "bool"
        }
      ],
      "stateMutability": "view",
      "type": "function"
    },
    {
      "inputs": [],
      "name": "symbol",
      "outputs": [
        {
          "internalType": "string",
          "name": "",
          "type": "string"
        }
      ],
      "stateMutability": "view",
      "type": "function"
    },
    {
      "inputs": [
        {
          "internalType": "uint256",
          "name": "tokenId",
          "type": "uint256"
        }
      ],
      "name": "tokenURI",
      "outputs": [
        {
          "internalType": "string",
          "name": "",
          "type": "string"
        }
      ],
      "stateMutability": "view",
      "type": "function"
    },
    {
      "inputs": [
        {
          "internalType": "address",
          "name": "from",
          "type": "address"
        },
        {
          "internalType": "address",
          "name": "to",
          "type": "address"
        },
        {
          "internalType": "uint256",
          "name": "tokenId",
          "type": "uint256"
        }
      ],
      "name": "transferFrom",
      "outputs": [],
      "stateMutability": "nonpayable",
      "type": "function"
    },
    {
      "inputs": [
        {
          "internalType": "address",
          "name": "newOwner",
          "type": "address"
        }
      ],
      "name": "transferOwnership",
      "outputs": [],
      "stateMutability": "nonpayable",
      "type": "function"
    }
  ],
  "bytecode": "0x60806040523480156200001157600080fd5b50604051806020016040528060008152506040518060200160405280600081525081600090805190602001906200004a9291906200015a565b508060019080519060200190620000639291906200015a565b505050620000866200007a6200008c60201b60201c565b6200009460201b60201c565b6200026f565b600033905090565b6000600660009054906101000a900473ffffffffffffffffffffffffffffffffffffffff16905081600660006101000a81548173ffffffffffffffffffffffffffffffffffffffff021916908373ffffffffffffffffffffffffffffffffffffffff1602179055508173ffffffffffffffffffffffffffffffffffffffff168173ffffffffffffffffffffffffffffffffffffffff167f8be0079c531659141344cd1fd0a4f28419497f9722a3daafe3b4186f6b6457e060405160405180910390a35050565b82805462000168906200020a565b90600052602060002090601f0160209004810192826200018c5760008555620001d8565b82601f10620001a757805160ff1916838001178555620001d8565b82800160010185558215620001d8579182015b82811115620001d7578251825591602001919060010190620001ba565b5b509050620001e79190620001eb565b5090565b5b8082111562000206576000816000905550600101620001ec565b5090565b600060028204905060018216806200022357607f821691505b602082108114156200023a576200023962000240565b5b50919050565b7f4e487b7100000000000000000000000000000000000000000000000000000000600052602260045260246000fd5b6127d7806200027f6000396000f3fe608060405234801561001057600080fd5b506004361061010b5760003560e01c806370a08231116100a2578063a22cb46511610071578063a22cb465146102a4578063b88d4fde146102c0578063c87b56dd146102dc578063e985e9c51461030c578063f2fde38b1461033c5761010b565b806370a082311461022e578063715018a61461025e5780638da5cb5b1461026857806395d89b41146102865761010b565b806323b872dd116100de57806323b872dd146101aa57806340c10f19146101c657806342842e0e146101e25780636352211e146101fe5761010b565b806301ffc9a71461011057806306fdde0314610140578063081812fc1461015e578063095ea7b31461018e575b600080fd5b61012a60048036038101906101259190611ab7565b610358565b6040516101379190611e54565b60405180910390f35b61014861043a565b6040516101559190611e6f565b60405180910390f35b61017860048036038101906101739190611b09565b6104cc565b6040516101859190611ded565b60405180910390f35b6101a860048036038101906101a39190611a7b565b610512565b005b6101c460048036038101906101bf9190611975565b61062a565b005b6101e060048036038101906101db9190611a7b565b61068a565b005b6101fc60048036038101906101f79190611975565b6106a0565b005b61021860048036038101906102139190611b09565b6106c0565b6040516102259190611ded565b60405180910390f35b61024860048036038101906102439190611910565b610772565b6040516102559190612031565b60405180910390f35b61026661082a565b005b61027061083e565b60405161027d9190611ded565b60405180910390f35b61028e610868565b60405161029b9190611e6f565b60405180910390f35b6102be60048036038101906102b99190611a3f565b6108fa565b005b6102da60048036038101906102d591906119c4565b610910565b005b6102f660048036038101906102f19190611b09565b610972565b6040516103039190611e6f565b60405180910390f35b61032660048036038101906103219190611939565b6109da565b6040516103339190611e54565b60405180910390f35b61035660048036038101906103519190611910565b610a6e565b005b60007f80ac58cd000000000000000000000000000000000000000000000000000000007bffffffffffffffffffffffffffffffffffffffffffffffffffffffff1916827bffffffffffffffffffffffffffffffffffffffffffffffffffffffff1916148061042357507f5b5e139f000000000000000000000000000000000000000000000000000000007bffffffffffffffffffffffffffffffffffffffffffffffffffffffff1916827bffffffffffffffffffffffffffffffffffffffffffffffffffffffff1916145b80610433575061043282610af2565b5b9050919050565b60606000805461044990612256565b80601f016020809104026020016040519081016040528092919081815260200182805461047590612256565b80156104c25780601f10610497576101008083540402835291602001916104c2565b820191906000526020600020905b8154815290600101906020018083116104a557829003601f168201915b5050505050905090565b60006104d782610b5c565b6004600083815260200190815260200160002060009054906101000a900473ffffffffffffffffffffffffffffffffffffffff169050919050565b600061051d826106c0565b90508073ffffffffffffffffffffffffffffffffffffffff168373ffffffffffffffffffffffffffffffffffffffff16141561058e576040517f08c379a000000000000000000000000000000000000000000000000000000000815260040161058590611ff1565b60405180910390fd5b8073ffffffffffffffffffffffffffffffffffffffff166105ad610ba7565b73ffffffffffffffffffffffffffffffffffffffff1614806105dc57506105db816105d6610ba7565b6109da565b5b61061b576040517f08c379a000000000000000000000000000000000000000000000000000000000815260040161061290611f71565b60405180910390fd5b6106258383610baf565b505050565b61063b610635610ba7565b82610c68565b61067a576040517f08c379a000000000000000000000000000000000000000000000000000000000815260040161067190612011565b60405180910390fd5b610685838383610cfd565b505050565b610692610f64565b61069c8282610fe2565b5050565b6106bb83838360405180602001604052806000815250610910565b505050565b6000806002600084815260200190815260200160002060009054906101000a900473ffffffffffffffffffffffffffffffffffffffff169050600073ffffffffffffffffffffffffffffffffffffffff168173ffffffffffffffffffffffffffffffffffffffff161415610769576040517f08c379a000000000000000000000000000000000000000000000000000000000815260040161076090611fd1565b60405180910390fd5b80915050919050565b60008073ffffffffffffffffffffffffffffffffffffffff168273ffffffffffffffffffffffffffffffffffffffff1614156107e3576040517f08c379a00000000000000000000000000000000000000000000000000000000081526004016107da90611f51565b60405180910390fd5b600360008373ffffffffffffffffffffffffffffffffffffffff1673ffffffffffffffffffffffffffffffffffffffff168152602001908152602001600020549050919050565b610832610f64565b61083c60006111bc565b565b6000600660009054906101000a900473ffffffffffffffffffffffffffffffffffffffff16905090565b60606001805461087790612256565b80601f01602080910402602001604051908101604052809291908181526020018280546108a390612256565b80156108f05780601f106108c5576101008083540402835291602001916108f0565b820191906000526020600020905b8154815290600101906020018083116108d357829003601f168201915b5050505050905090565b61090c610905610ba7565b8383611282565b5050565b61092161091b610ba7565b83610c68565b610960576040517f08c379a000000000000000000000000000000000000000000000000000000000815260040161095790612011565b60405180910390fd5b61096c848484846113ef565b50505050565b606061097d82610b5c565b600061098761144b565b905060008151116109a757604051806020016040528060008152506109d2565b806109b184611462565b6040516020016109c2929190611dc9565b6040516020818303038152906040525b915050919050565b6000600560008473ffffffffffffffffffffffffffffffffffffffff1673ffffffffffffffffffffffffffffffffffffffff16815260200190815260200160002060008373ffffffffffffffffffffffffffffffffffffffff1673ffffffffffffffffffffffffffffffffffffffff16815260200190815260200160002060009054906101000a900460ff16905092915050565b610a76610f64565b600073ffffffffffffffffffffffffffffffffffffffff168173ffffffffffffffffffffffffffffffffffffffff161415610ae6576040517f08c379a0000000000000000000000000000000000000000000000000000000008152600401610add90611eb1565b60405180910390fd5b610aef816111bc565b50565b60007f01ffc9a7000000000000000000000000000000000000000000000000000000007bffffffffffffffffffffffffffffffffffffffffffffffffffffffff1916827bffffffffffffffffffffffffffffffffffffffffffffffffffffffff1916149050919050565b610b658161160f565b610ba4576040517f08c379a0000000000000000000000000000000000000000000000000000000008152600401610b9b90611fd1565b60405180910390fd5b50565b600033905090565b816004600083815260200190815260200160002060006101000a81548173ffffffffffffffffffffffffffffffffffffffff021916908373ffffffffffffffffffffffffffffffffffffffff160217905550808273ffffffffffffffffffffffffffffffffffffffff16610c22836106c0565b73ffffffffffffffffffffffffffffffffffffffff167f8c5be1e5ebec7d5bd14f71427d1e84f3dd0314c0f7b2291e5b200ac8c7c3b92560405160405180910390a45050565b600080610c74836106c0565b90508073ffffffffffffffffffffffffffffffffffffffff168473ffffffffffffffffffffffffffffffffffffffff161480610cb65750610cb581856109da565b5b80610cf457508373ffffffffffffffffffffffffffffffffffffffff16610cdc846104cc565b73ffffffffffffffffffffffffffffffffffffffff16145b91505092915050565b8273ffffffffffffffffffffffffffffffffffffffff16610d1d826106c0565b73ffffffffffffffffffffffffffffffffffffffff1614610d73576040517f08c379a0000000000000000000000000000000000000000000000000000000008152600401610d6a90611ed1565b60405180910390fd5b600073ffffffffffffffffffffffffffffffffffffffff168273ffffffffffffffffffffffffffffffffffffffff161415610de3576040517f08c379a0000000000000000000000000000000000000000000000000000000008152600401610dda90611f11565b60405180910390fd5b610dee83838361167b565b610df9600082610baf565b6001600360008573ffffffffffffffffffffffffffffffffffffffff1673ffffffffffffffffffffffffffffffffffffffff1681526020019081526020016000206000828254610e49919061216c565b925050819055506001600360008473ffffffffffffffffffffffffffffffffffffffff1673ffffffffffffffffffffffffffffffffffffffff1681526020019081526020016000206000828254610ea091906120e5565b92505081905550816002600083815260200190815260200160002060006101000a81548173ffffffffffffffffffffffffffffffffffffffff021916908373ffffffffffffffffffffffffffffffffffffffff160217905550808273ffffffffffffffffffffffffffffffffffffffff168473ffffffffffffffffffffffffffffffffffffffff167fddf252ad1be2c89b69c2b068fc378daa952ba7f163c4a11628f55a4df523b3ef60405160405180910390a4610f5f838383611680565b505050565b610f6c610ba7565b73ffffffffffffffffffffffffffffffffffffffff16610f8a61083e565b73ffffffffffffffffffffffffffffffffffffffff1614610fe0576040517f08c379a0000000000000000000000000000000000000000000000000000000008152600401610fd790611fb1565b60405180910390fd5b565b600073ffffffffffffffffffffffffffffffffffffffff168273ffffffffffffffffffffffffffffffffffffffff161415611052576040517f08c379a000000000000000000000000000000000000000000000000000000000815260040161104990611f91565b60405180910390fd5b61105b8161160f565b1561109b576040517f08c379a000000000000000000000000000000000000000000000000000000000815260040161109290611ef1565b60405180910390fd5b6110a76000838361167b565b6001600360008473ffffffffffffffffffffffffffffffffffffffff1673ffffffffffffffffffffffffffffffffffffffff16815260200190815260200160002060008282546110f791906120e5565b92505081905550816002600083815260200190815260200160002060006101000a81548173ffffffffffffffffffffffffffffffffffffffff021916908373ffffffffffffffffffffffffffffffffffffffff160217905550808273ffffffffffffffffffffffffffffffffffffffff16600073ffffffffffffffffffffffffffffffffffffffff167fddf252ad1be2c89b69c2b068fc378daa952ba7f163c4a11628f55a4df523b3ef60405160405180910390a46111b860008383611680565b5050565b6000600660009054906101000a900473ffffffffffffffffffffffffffffffffffffffff16905081600660006101000a81548173ffffffffffffffffffffffffffffffffffffffff021916908373ffffffffffffffffffffffffffffffffffffffff1602179055508173ffffffffffffffffffffffffffffffffffffffff168173ffffffffffffffffffffffffffffffffffffffff167f8be0079c531659141344cd1fd0a4f28419497f9722a3daafe3b4186f6b6457e060405160405180910390a35050565b8173ffffffffffffffffffffffffffffffffffffffff168373ffffffffffffffffffffffffffffffffffffffff1614156112f1576040517f08c379a00000000000000000000000000000000000000000000000000000000081526004016112e890611f31565b60405180910390fd5b80600560008573ffffffffffffffffffffffffffffffffffffffff1673ffffffffffffffffffffffffffffffffffffffff16815260200190815260200160002060008473ffffffffffffffffffffffffffffffffffffffff1673ffffffffffffffffffffffffffffffffffffffff16815260200190815260200160002060006101000a81548160ff0219169083151502179055508173ffffffffffffffffffffffffffffffffffffffff168373ffffffffffffffffffffffffffffffffffffffff167f17307eab39ab6107e8899845ad3d59bd9653f200f220920489ca2b5937696c31836040516113e29190611e54565b60405180910390a3505050565b6113fa848484610cfd565b61140684848484611685565b611445576040517f08c379a000000000000000000000000000000000000000000000000000000000815260040161143c90611e91565b60405180910390fd5b50505050565b606060405180602001604052806000815250905090565b606060008214156114aa576040518060400160405280600181526020017f3000000000000000000000000000000000000000000000000000000000000000815250905061160a565b600082905060005b600082146114dc5780806114c5906122b9565b915050600a826114d5919061213b565b91506114b2565b60008167ffffffffffffffff81111561151e577f4e487b7100000000000000000000000000000000000000000000000000000000600052604160045260246000fd5b6040519080825280601f01601f1916602001820160405280156115505781602001600182028036833780820191505090505b5090505b6000851461160357600182611569919061216c565b9150600a856115789190612302565b603061158491906120e5565b60f81b8183815181106115c0577f4e487b7100000000000000000000000000000000000000000000000000000000600052603260045260246000fd5b60200101907effffffffffffffffffffffffffffffffffffffffffffffffffffffffffffff1916908160001a905350600a856115fc919061213b565b9450611554565b8093505050505b919050565b60008073ffffffffffffffffffffffffffffffffffffffff166002600084815260200190815260200160002060009054906101000a900473ffffffffffffffffffffffffffffffffffffffff1673ffffffffffffffffffffffffffffffffffffffff1614159050919050565b505050565b505050565b60006116a68473ffffffffffffffffffffffffffffffffffffffff1661181c565b1561180f578373ffffffffffffffffffffffffffffffffffffffff1663150b7a026116cf610ba7565b8786866040518563ffffffff1660e01b81526004016116f19493929190611e08565b602060405180830381600087803b15801561170b57600080fd5b505af192505050801561173c57506040513d601f19601f820116820180604052508101906117399190611ae0565b60015b6117bf573d806000811461176c576040519150601f19603f3d011682016040523d82523d6000602084013e611771565b606091505b506000815114156117b7576040517f08c379a00000000000000000000000000000000000000000000000000000000081526004016117ae90611e91565b60405180910390fd5b805181602001fd5b63150b7a0260e01b7bffffffffffffffffffffffffffffffffffffffffffffffffffffffff1916817bffffffffffffffffffffffffffffffffffffffffffffffffffffffff191614915050611814565b600190505b949350505050565b6000808273ffffffffffffffffffffffffffffffffffffffff163b119050919050565b600061185261184d84612071565b61204c565b90508281526020810184848401111561186a57600080fd5b611875848285612214565b509392505050565b60008135905061188c81612745565b92915050565b6000813590506118a18161275c565b92915050565b6000813590506118b681612773565b92915050565b6000815190506118cb81612773565b92915050565b600082601f8301126118e257600080fd5b81356118f284826020860161183f565b91505092915050565b60008135905061190a8161278a565b92915050565b60006020828403121561192257600080fd5b60006119308482850161187d565b91505092915050565b6000806040838503121561194c57600080fd5b600061195a8582860161187d565b925050602061196b8582860161187d565b9150509250929050565b60008060006060848603121561198a57600080fd5b60006119988682870161187d565b93505060206119a98682870161187d565b92505060406119ba868287016118fb565b9150509250925092565b600080600080608085870312156119da57600080fd5b60006119e88782880161187d565b94505060206119f98782880161187d565b9350506040611a0a878288016118fb565b925050606085013567ffffffffffffffff811115611a2757600080fd5b611a33878288016118d1565b91505092959194509250565b60008060408385031215611a5257600080fd5b6000611a608582860161187d565b9250506020611a7185828601611892565b9150509250929050565b60008060408385031215611a8e57600080fd5b6000611a9c8582860161187d565b9250506020611aad858286016118fb565b9150509250929050565b600060208284031215611ac957600080fd5b6000611ad7848285016118a7565b91505092915050565b600060208284031215611af257600080fd5b6000611b00848285016118bc565b91505092915050565b600060208284031215611b1b57600080fd5b6000611b29848285016118fb565b91505092915050565b611b3b816121a0565b82525050565b611b4a816121b2565b82525050565b6000611b5b826120a2565b611b6581856120b8565b9350611b75818560208601612223565b611b7e816123ef565b840191505092915050565b6000611b94826120ad565b611b9e81856120c9565b9350611bae818560208601612223565b611bb7816123ef565b840191505092915050565b6000611bcd826120ad565b611bd781856120da565b9350611be7818560208601612223565b80840191505092915050565b6000611c006032836120c9565b9150611c0b82612400565b604082019050919050565b6000611c236026836120c9565b9150611c2e8261244f565b604082019050919050565b6000611c466025836120c9565b9150611c518261249e565b604082019050919050565b6000611c69601c836120c9565b9150611c74826124ed565b602082019050919050565b6000611c8c6024836120c9565b9150611c9782612516565b604082019050919050565b6000611caf6019836120c9565b9150611cba82612565565b602082019050919050565b6000611cd26029836120c9565b9150611cdd8261258e565b604082019050919050565b6000611cf5603e836120c9565b9150611d00826125dd565b604082019050919050565b6000611d186020836120c9565b9150611d238261262c565b602082019050919050565b6000611d3b6020836120c9565b9150611d4682612655565b602082019050919050565b6000611d5e6018836120c9565b9150611d698261267e565b602082019050919050565b6000611d816021836120c9565b9150611d8c826126a7565b604082019050919050565b6000611da4602e836120c9565b9150611daf826126f6565b604082019050919050565b611dc38161220a565b82525050565b6000611dd58285611bc2565b9150611de18284611bc2565b91508190509392505050565b6000602082019050611e026000830184611b32565b92915050565b6000608082019050611e1d6000830187611b32565b611e2a6020830186611b32565b611e376040830185611dba565b8181036060830152611e498184611b50565b905095945050505050565b6000602082019050611e696000830184611b41565b92915050565b60006020820190508181036000830152611e898184611b89565b905092915050565b60006020820190508181036000830152611eaa81611bf3565b9050919050565b60006020820190508181036000830152611eca81611c16565b9050919050565b60006020820190508181036000830152611eea81611c39565b9050919050565b60006020820190508181036000830152611f0a81611c5c565b9050919050565b60006020820190508181036000830152611f2a81611c7f565b9050919050565b60006020820190508181036000830152611f4a81611ca2565b9050919050565b60006020820190508181036000830152611f6a81611cc5565b9050919050565b60006020820190508181036000830152611f8a81611ce8565b9050919050565b60006020820190508181036000830152611faa81611d0b565b9050919050565b60006020820190508181036000830152611fca81611d2e565b9050919050565b60006020820190508181036000830152611fea81611d51565b9050919050565b6000602082019050818103600083015261200a81611d74565b9050919050565b6000602082019050818103600083015261202a81611d97565b9050919050565b60006020820190506120466000830184611dba565b92915050565b6000612056612067565b90506120628282612288565b919050565b6000604051905090565b600067ffffffffffffffff82111561208c5761208b6123c0565b5b612095826123ef565b9050602081019050919050565b600081519050919050565b600081519050919050565b600082825260208201905092915050565b600082825260208201905092915050565b600081905092915050565b60006120f08261220a565b91506120fb8361220a565b9250827fffffffffffffffffffffffffffffffffffffffffffffffffffffffffffffffff038211156121305761212f612333565b5b828201905092915050565b60006121468261220a565b91506121518361220a565b92508261216157612160612362565b5b828204905092915050565b60006121778261220a565b91506121828361220a565b92508282101561219557612194612333565b5b828203905092915050565b60006121ab826121ea565b9050919050565b60008115159050919050565b60007fffffffff0000000000000000000000000000000000000000000000000000000082169050919050565b600073ffffffffffffffffffffffffffffffffffffffff82169050919050565b6000819050919050565b82818337600083830152505050565b60005b83811015612241578082015181840152602081019050612226565b83811115612250576000848401525b50505050565b6000600282049050600182168061226e57607f821691505b6020821081141561228257612281612391565b5b50919050565b612291826123ef565b810181811067ffffffffffffffff821117156122b0576122af6123c0565b5b80604052505050565b60006122c48261220a565b91507fffffffffffffffffffffffffffffffffffffffffffffffffffffffffffffffff8214156122f7576122f6612333565b5b600182019050919050565b600061230d8261220a565b91506123188361220a565b92508261232857612327612362565b5b828206905092915050565b7f4e487b7100000000000000000000000000000000000000000000000000000000600052601160045260246000fd5b7f4e487b7100000000000000000000000000000000000000000000000000000000600052601260045260246000fd5b7f4e487b7100000000000000000000000000000000000000000000000000000000600052602260045260246000fd5b7f4e487b7100000000000000000000000000000000000000000000000000000000600052604160045260246000fd5b6000601f19601f8301169050919050565b7f4552433732313a207472616e7366657220746f206e6f6e20455243373231526560008201527f63656976657220696d706c656d656e7465720000000000000000000000000000602082015250565b7f4f776e61626c653a206e6577206f776e657220697320746865207a65726f206160008201527f6464726573730000000000000000000000000000000000000000000000000000602082015250565b7f4552433732313a207472616e736665722066726f6d20696e636f72726563742060008201527f6f776e6572000000000000000000000000000000000000000000000000000000602082015250565b7f4552433732313a20746f6b656e20616c7265616479206d696e74656400000000600082015250565b7f4552433732313a207472616e7366657220746f20746865207a65726f2061646460008201527f7265737300000000000000000000000000000000000000000000000000000000602082015250565b7f4552433732313a20617070726f766520746f2063616c6c657200000000000000600082015250565b7f4552433732313a2061646472657373207a65726f206973206e6f74206120766160008201527f6c6964206f776e65720000000000000000000000000000000000000000000000602082015250565b7f4552433732313a20617070726f76652063616c6c6572206973206e6f7420746f60008201527f6b656e206f776e6572206e6f7220617070726f76656420666f7220616c6c0000602082015250565b7f4552433732313a206d696e7420746f20746865207a65726f2061646472657373600082015250565b7f4f776e61626c653a2063616c6c6572206973206e6f7420746865206f776e6572600082015250565b7f4552433732313a20696e76616c696420746f6b656e2049440000000000000000600082015250565b7f4552433732313a20617070726f76616c20746f2063757272656e74206f776e6560008201527f7200000000000000000000000000000000000000000000000000000000000000602082015250565b7f4552433732313a2063616c6c6572206973206e6f7420746f6b656e206f776e6560008201527f72206e6f7220617070726f766564000000000000000000000000000000000000602082015250565b61274e816121a0565b811461275957600080fd5b50565b612765816121b2565b811461277057600080fd5b50565b61277c816121be565b811461278757600080fd5b50565b6127938161220a565b811461279e57600080fd5b5056fea26469706673582212206bffb50f0c5596588aab4bb660966ac715e54891993c70870e1c32400a8f8c6d64736f6c63430008010033",
  "linkReferences": {},
  "deployedLinkReferences": {}
}